{
  "contractName": "ProductSupplyChain",
  "abi": [
    {
      "inputs": [
        {
          "internalType": "address",
          "name": "_supplyChainAddress",
          "type": "address"
        }
      ],
      "stateMutability": "nonpayable",
      "type": "constructor"
    },
    {
      "anonymous": false,
      "inputs": [
        {
          "indexed": true,
          "internalType": "address",
          "name": "user",
          "type": "address"
        },
        {
          "indexed": true,
          "internalType": "address",
          "name": "batchNo",
          "type": "address"
        }
      ],
      "name": "BuyingRawMaterial",
      "type": "event"
    },
    {
      "anonymous": false,
      "inputs": [
        {
          "indexed": true,
          "internalType": "address",
          "name": "user",
          "type": "address"
        },
        {
          "indexed": true,
          "internalType": "address",
          "name": "batchNo",
          "type": "address"
        }
      ],
      "name": "DoneAssembling",
      "type": "event"
    },
    {
      "anonymous": false,
      "inputs": [
        {
          "indexed": true,
          "internalType": "address",
          "name": "user",
          "type": "address"
        },
        {
          "indexed": true,
          "internalType": "address",
          "name": "batchNo",
          "type": "address"
        }
      ],
      "name": "DoneDelivery",
      "type": "event"
    },
    {
      "anonymous": false,
      "inputs": [
        {
          "indexed": true,
          "internalType": "address",
          "name": "user",
          "type": "address"
        },
        {
          "indexed": true,
          "internalType": "address",
          "name": "batchNo",
          "type": "address"
        }
      ],
      "name": "DoneInspecting",
      "type": "event"
    },
    {
      "anonymous": false,
      "inputs": [
        {
          "indexed": true,
          "internalType": "address",
          "name": "user",
          "type": "address"
        },
        {
          "indexed": true,
          "internalType": "address",
          "name": "batchNo",
          "type": "address"
        }
      ],
      "name": "DonePacking",
      "type": "event"
    },
    {
      "anonymous": false,
      "inputs": [
        {
          "indexed": true,
          "internalType": "address",
          "name": "oldOwner",
          "type": "address"
        }
      ],
      "name": "OwnershipRenounced",
      "type": "event"
    },
    {
      "anonymous": false,
      "inputs": [
        {
          "indexed": true,
          "internalType": "address",
          "name": "oldOwner",
          "type": "address"
        },
        {
          "indexed": true,
          "internalType": "address",
          "name": "newOwner",
          "type": "address"
        }
      ],
      "name": "OwnershipTransferred",
      "type": "event"
    },
    {
      "inputs": [],
      "name": "owner",
      "outputs": [
        {
          "internalType": "address",
          "name": "",
          "type": "address"
        }
      ],
      "stateMutability": "view",
      "type": "function",
      "constant": true
    },
    {
      "inputs": [],
      "name": "renounceOwnership",
      "outputs": [],
      "stateMutability": "nonpayable",
      "type": "function"
    },
    {
      "inputs": [
        {
          "internalType": "address",
          "name": "newOwner",
          "type": "address"
        }
      ],
      "name": "transferOwnership",
      "outputs": [],
      "stateMutability": "nonpayable",
      "type": "function"
    },
    {
      "inputs": [
        {
          "internalType": "address",
          "name": "_batchNo",
          "type": "address"
        }
      ],
      "name": "getUser",
      "outputs": [
        {
          "internalType": "string",
          "name": "name",
          "type": "string"
        },
        {
          "internalType": "string",
          "name": "contactNo",
          "type": "string"
        },
        {
          "internalType": "string",
          "name": "role",
          "type": "string"
        },
        {
          "internalType": "bool",
          "name": "isActive",
          "type": "bool"
        }
      ],
      "stateMutability": "nonpayable",
      "type": "function"
    },
    {
      "inputs": [
        {
          "internalType": "address",
          "name": "_userAddress",
          "type": "address"
        },
        {
          "internalType": "string",
          "name": "_name",
          "type": "string"
        },
        {
          "internalType": "string",
          "name": "_contactNo",
          "type": "string"
        },
        {
          "internalType": "string",
          "name": "_role",
          "type": "string"
        },
        {
          "internalType": "bool",
          "name": "_isActive",
          "type": "bool"
        }
      ],
      "name": "setUser",
      "outputs": [
        {
          "internalType": "bool",
          "name": "",
          "type": "bool"
        }
      ],
      "stateMutability": "nonpayable",
      "type": "function"
    },
    {
      "inputs": [
        {
          "internalType": "address",
          "name": "_batchNo",
          "type": "address"
        }
      ],
      "name": "getNextAction",
      "outputs": [
        {
          "internalType": "string",
          "name": "action",
          "type": "string"
        }
      ],
      "stateMutability": "nonpayable",
      "type": "function"
    },
    {
      "inputs": [
        {
          "internalType": "address",
          "name": "_batchNo",
          "type": "address"
        }
      ],
      "name": "getRetailerData",
      "outputs": [
        {
          "internalType": "string",
          "name": "registrationNo",
          "type": "string"
        },
        {
          "internalType": "string",
          "name": "shopName",
          "type": "string"
        },
        {
          "internalType": "string",
          "name": "shopAddress",
          "type": "string"
        }
      ],
      "stateMutability": "nonpayable",
      "type": "function"
    },
    {
      "inputs": [
        {
          "internalType": "address",
          "name": "_batchNo",
          "type": "address"
        },
        {
          "internalType": "string",
          "name": "_registrationNo",
          "type": "string"
        },
        {
          "internalType": "string",
          "name": "_shopName",
          "type": "string"
        },
        {
          "internalType": "string",
          "name": "_shopAddress",
          "type": "string"
        }
      ],
      "name": "setRetailerData",
      "outputs": [
        {
          "internalType": "bool",
          "name": "",
          "type": "bool"
        }
      ],
      "stateMutability": "nonpayable",
      "type": "function"
    },
    {
      "inputs": [
        {
          "internalType": "address",
          "name": "_batchNo",
          "type": "address"
        }
      ],
      "name": "getAssemblerData",
      "outputs": [
        {
          "internalType": "string",
          "name": "expertiseArea",
          "type": "string"
        },
        {
          "internalType": "string",
          "name": "experience",
          "type": "string"
        }
      ],
      "stateMutability": "nonpayable",
      "type": "function"
    },
    {
      "inputs": [
        {
          "internalType": "address",
          "name": "_batchNo",
          "type": "address"
        },
        {
          "internalType": "string",
          "name": "_expertiseArea",
          "type": "string"
        },
        {
          "internalType": "string",
          "name": "_experience",
          "type": "string"
        }
      ],
      "name": "setAssemblerData",
      "outputs": [
        {
          "internalType": "bool",
          "name": "",
          "type": "bool"
        }
      ],
      "stateMutability": "nonpayable",
      "type": "function"
    },
    {
      "inputs": [
        {
          "internalType": "address",
          "name": "_batchNo",
          "type": "address"
        }
      ],
      "name": "getProductInspectorData",
      "outputs": [
        {
          "internalType": "string",
          "name": "typeOfProduct",
          "type": "string"
        },
        {
          "internalType": "string",
          "name": "serviceChecked",
          "type": "string"
        }
      ],
      "stateMutability": "nonpayable",
      "type": "function"
    },
    {
      "inputs": [
        {
          "internalType": "address",
          "name": "_batchNo",
          "type": "address"
        },
        {
          "internalType": "string",
          "name": "_typeOfProduct",
          "type": "string"
        },
        {
          "internalType": "string",
          "name": "_serviceChecked",
          "type": "string"
        }
      ],
      "name": "setProductInspectorData",
      "outputs": [
        {
          "internalType": "bool",
          "name": "",
          "type": "bool"
        }
      ],
      "stateMutability": "nonpayable",
      "type": "function"
    },
    {
      "inputs": [
        {
          "internalType": "address",
          "name": "_batchNo",
          "type": "address"
        }
      ],
      "name": "getPackerData",
      "outputs": [
        {
          "internalType": "string",
          "name": "typeOfProduct",
          "type": "string"
        },
        {
          "internalType": "string",
          "name": "materialUsed",
          "type": "string"
        }
      ],
      "stateMutability": "nonpayable",
      "type": "function"
    },
    {
      "inputs": [
        {
          "internalType": "address",
          "name": "_batchNo",
          "type": "address"
        },
        {
          "internalType": "string",
          "name": "_typeOfProduct",
          "type": "string"
        },
        {
          "internalType": "string",
          "name": "_materialUsed",
          "type": "string"
        }
      ],
      "name": "setPackerData",
      "outputs": [
        {
          "internalType": "bool",
          "name": "",
          "type": "bool"
        }
      ],
      "stateMutability": "nonpayable",
      "type": "function"
    },
    {
      "inputs": [
        {
          "internalType": "address",
          "name": "_batchNo",
          "type": "address"
        }
      ],
      "name": "getDelivererData",
      "outputs": [
        {
          "internalType": "string",
          "name": "typeOfProduct",
          "type": "string"
        },
        {
          "internalType": "string",
          "name": "vehicalUsed",
          "type": "string"
        }
      ],
      "stateMutability": "nonpayable",
      "type": "function"
    },
    {
      "inputs": [
        {
          "internalType": "address",
          "name": "_batchNo",
          "type": "address"
        },
        {
          "internalType": "string",
          "name": "_typeOfProduct",
          "type": "string"
        },
        {
          "internalType": "string",
          "name": "_vehicalUsed",
          "type": "string"
        }
      ],
      "name": "setDeliverData",
      "outputs": [
        {
          "internalType": "bool",
          "name": "",
          "type": "bool"
        }
      ],
      "stateMutability": "nonpayable",
      "type": "function"
    }
  ],
  "bytecode": "0x60806040523480156200001157600080fd5b506040516200268b3803806200268b8339818101604052810190620000379190620000d6565b336000806101000a81548173ffffffffffffffffffffffffffffffffffffffff021916908373ffffffffffffffffffffffffffffffffffffffff16021790555080600160006101000a81548173ffffffffffffffffffffffffffffffffffffffff021916908373ffffffffffffffffffffffffffffffffffffffff1602179055505062000150565b600081519050620000d08162000136565b92915050565b600060208284031215620000e957600080fd5b6000620000f984828501620000bf565b91505092915050565b60006200010f8262000116565b9050919050565b600073ffffffffffffffffffffffffffffffffffffffff82169050919050565b620001418162000102565b81146200014d57600080fd5b50565b61252b80620001606000396000f3fe608060405234801561001057600080fd5b50600436106101005760003560e01c806390ead49311610097578063ceca77e411610066578063ceca77e414610315578063e3642dbf14610345578063f2fde38b14610376578063fd6c78d31461039257610100565b806390ead49314610253578063933ee10114610283578063bdf3121b146102b3578063c4839363146102e457610100565b80636a7352d5116100d35780636a7352d5146101c65780636f77926b146101f8578063715018a61461022b5780638da5cb5b1461023557610100565b80630e4ab87f146101055780630e9b8214146101365780631f10a010146101665780634d6b5e0014610196575b600080fd5b61011f600480360381019061011a9190611c7a565b6103c2565b60405161012d9291906122a2565b60405180910390f35b610150600480360381019061014b9190611d22565b610484565b60405161015d9190612265565b60405180910390f35b610180600480360381019061017b9190611dcd565b6105a2565b60405161018d9190612265565b60405180910390f35b6101b060048036038101906101ab9190611c7a565b6106c3565b6040516101bd9190612280565b60405180910390f35b6101e060048036038101906101db9190611c7a565b61077e565b6040516101ef939291906122d9565b60405180910390f35b610212600480360381019061020d9190611c7a565b610848565b6040516102229493929190612325565b60405180910390f35b610233610918565b005b61023d610a16565b60405161024a9190612143565b60405180910390f35b61026d60048036038101906102689190611ca3565b610a3a565b60405161027a9190612265565b60405180910390f35b61029d60048036038101906102989190611ca3565b610da1565b6040516102aa9190612265565b60405180910390f35b6102cd60048036038101906102c89190611c7a565b611108565b6040516102db9291906122a2565b60405180910390f35b6102fe60048036038101906102f99190611c7a565b6111ca565b60405161030c9291906122a2565b60405180910390f35b61032f600480360381019061032a9190611ca3565b61128c565b60405161033c9190612265565b60405180910390f35b61035f600480360381019061035a9190611c7a565b6115f3565b60405161036d9291906122a2565b60405180910390f35b610390600480360381019061038b9190611c7a565b6116b5565b005b6103ac60048036038101906103a79190611ca3565b611804565b6040516103b99190612265565b60405180910390f35b606080600160009054906101000a900473ffffffffffffffffffffffffffffffffffffffff1673ffffffffffffffffffffffffffffffffffffffff16630e4ab87f846040518263ffffffff1660e01b81526004016104209190612143565b600060405180830381600087803b15801561043a57600080fd5b505af115801561044e573d6000803e3d6000fd5b505050506040513d6000823e3d601f19601f820116820180604052508101906104779190611ef6565b8092508193505050915091565b600080600160009054906101000a900473ffffffffffffffffffffffffffffffffffffffff1673ffffffffffffffffffffffffffffffffffffffff16630e9b8214878787876040518563ffffffff1660e01b81526004016104e894939291906121a3565b602060405180830381600087803b15801561050257600080fd5b505af1158015610516573d6000803e3d6000fd5b505050506040513d601f19601f8201168201806040525081019061053a9190611e8c565b90508573ffffffffffffffffffffffffffffffffffffffff163373ffffffffffffffffffffffffffffffffffffffff167f0d779436efb53847af4912a745a5e0a7611bfd1d5d57868743efcae015f3e4a360405160405180910390a380915050949350505050565b60008060009054906101000a900473ffffffffffffffffffffffffffffffffffffffff1673ffffffffffffffffffffffffffffffffffffffff163373ffffffffffffffffffffffffffffffffffffffff16146105fd57600080fd5b6000600160009054906101000a900473ffffffffffffffffffffffffffffffffffffffff1673ffffffffffffffffffffffffffffffffffffffff16631f10a01088888888886040518663ffffffff1660e01b81526004016106629594939291906121fd565b602060405180830381600087803b15801561067c57600080fd5b505af1158015610690573d6000803e3d6000fd5b505050506040513d601f19601f820116820180604052508101906106b49190611e8c565b90508091505095945050505050565b6060600160009054906101000a900473ffffffffffffffffffffffffffffffffffffffff1673ffffffffffffffffffffffffffffffffffffffff16634d6b5e00836040518263ffffffff1660e01b81526004016107209190612143565b600060405180830381600087803b15801561073a57600080fd5b505af115801561074e573d6000803e3d6000fd5b505050506040513d6000823e3d601f19601f820116820180604052508101906107779190611eb5565b9050919050565b6060806060600160009054906101000a900473ffffffffffffffffffffffffffffffffffffffff1673ffffffffffffffffffffffffffffffffffffffff16636a7352d5856040518263ffffffff1660e01b81526004016107de9190612143565b600060405180830381600087803b1580156107f857600080fd5b505af115801561080c573d6000803e3d6000fd5b505050506040513d6000823e3d601f19601f820116820180604052508101906108359190611f62565b8093508194508295505050509193909250565b60608060606000600160009054906101000a900473ffffffffffffffffffffffffffffffffffffffff1673ffffffffffffffffffffffffffffffffffffffff16636f77926b866040518263ffffffff1660e01b81526004016108aa9190612143565b600060405180830381600087803b1580156108c457600080fd5b505af11580156108d8573d6000803e3d6000fd5b505050506040513d6000823e3d601f19601f820116820180604052508101906109019190611ff9565b809450819550829650839750505050509193509193565b60008054906101000a900473ffffffffffffffffffffffffffffffffffffffff1673ffffffffffffffffffffffffffffffffffffffff163373ffffffffffffffffffffffffffffffffffffffff161461097057600080fd5b60008054906101000a900473ffffffffffffffffffffffffffffffffffffffff1673ffffffffffffffffffffffffffffffffffffffff167ff8df31144d9c2f0f6b59d69b8b98abd5459d07f2742c4df920b25aae33c6482060405160405180910390a260008060006101000a81548173ffffffffffffffffffffffffffffffffffffffff021916908373ffffffffffffffffffffffffffffffffffffffff160217905550565b60008054906101000a900473ffffffffffffffffffffffffffffffffffffffff1681565b6000836040518060400160405280600981526020017f5041434b4147494e47000000000000000000000000000000000000000000000081525080604051602001610a84919061212c565b60405160208183030381529060405280519060200120600160009054906101000a900473ffffffffffffffffffffffffffffffffffffffff1673ffffffffffffffffffffffffffffffffffffffff166327820851336040518263ffffffff1660e01b8152600401610af59190612143565b600060405180830381600087803b158015610b0f57600080fd5b505af1158015610b23573d6000803e3d6000fd5b505050506040513d6000823e3d601f19601f82011682018060405250810190610b4c9190611eb5565b604051602001610b5c919061212c565b6040516020818303038152906040528051906020012014610b7c57600080fd5b80604051602001610b8d919061212c565b60405160208183030381529060405280519060200120600160009054906101000a900473ffffffffffffffffffffffffffffffffffffffff1673ffffffffffffffffffffffffffffffffffffffff16634d6b5e00846040518263ffffffff1660e01b8152600401610bfe9190612143565b600060405180830381600087803b158015610c1857600080fd5b505af1158015610c2c573d6000803e3d6000fd5b505050506040513d6000823e3d601f19601f82011682018060405250810190610c559190611eb5565b604051602001610c65919061212c565b6040516020818303038152906040528051906020012014610c8557600080fd5b6000600160009054906101000a900473ffffffffffffffffffffffffffffffffffffffff1673ffffffffffffffffffffffffffffffffffffffff166390ead4938888886040518463ffffffff1660e01b8152600401610ce69392919061215e565b602060405180830381600087803b158015610d0057600080fd5b505af1158015610d14573d6000803e3d6000fd5b505050506040513d601f19601f82011682018060405250810190610d389190611e8c565b90508673ffffffffffffffffffffffffffffffffffffffff163373ffffffffffffffffffffffffffffffffffffffff167f508d05d05d2f6f0958f009eb1a5a160318bb08c938fe4b173344c51667e07c6460405160405180910390a38093505050509392505050565b6000836040518060400160405280600881526020017f44454c495645525900000000000000000000000000000000000000000000000081525080604051602001610deb919061212c565b60405160208183030381529060405280519060200120600160009054906101000a900473ffffffffffffffffffffffffffffffffffffffff1673ffffffffffffffffffffffffffffffffffffffff166327820851336040518263ffffffff1660e01b8152600401610e5c9190612143565b600060405180830381600087803b158015610e7657600080fd5b505af1158015610e8a573d6000803e3d6000fd5b505050506040513d6000823e3d601f19601f82011682018060405250810190610eb39190611eb5565b604051602001610ec3919061212c565b6040516020818303038152906040528051906020012014610ee357600080fd5b80604051602001610ef4919061212c565b60405160208183030381529060405280519060200120600160009054906101000a900473ffffffffffffffffffffffffffffffffffffffff1673ffffffffffffffffffffffffffffffffffffffff16634d6b5e00846040518263ffffffff1660e01b8152600401610f659190612143565b600060405180830381600087803b158015610f7f57600080fd5b505af1158015610f93573d6000803e3d6000fd5b505050506040513d6000823e3d601f19601f82011682018060405250810190610fbc9190611eb5565b604051602001610fcc919061212c565b6040516020818303038152906040528051906020012014610fec57600080fd5b6000600160009054906101000a900473ffffffffffffffffffffffffffffffffffffffff1673ffffffffffffffffffffffffffffffffffffffff1663933ee1018888886040518463ffffffff1660e01b815260040161104d9392919061215e565b602060405180830381600087803b15801561106757600080fd5b505af115801561107b573d6000803e3d6000fd5b505050506040513d601f19601f8201168201806040525081019061109f9190611e8c565b90508673ffffffffffffffffffffffffffffffffffffffff163373ffffffffffffffffffffffffffffffffffffffff167f78c2fbfcbb951e57afdeb2824acea11f8f2530c140db322b3286d1ec894c743360405160405180910390a38093505050509392505050565b606080600160009054906101000a900473ffffffffffffffffffffffffffffffffffffffff1673ffffffffffffffffffffffffffffffffffffffff1663bdf3121b846040518263ffffffff1660e01b81526004016111669190612143565b600060405180830381600087803b15801561118057600080fd5b505af1158015611194573d6000803e3d6000fd5b505050506040513d6000823e3d601f19601f820116820180604052508101906111bd9190611ef6565b8092508193505050915091565b606080600160009054906101000a900473ffffffffffffffffffffffffffffffffffffffff1673ffffffffffffffffffffffffffffffffffffffff1663c4839363846040518263ffffffff1660e01b81526004016112289190612143565b600060405180830381600087803b15801561124257600080fd5b505af1158015611256573d6000803e3d6000fd5b505050506040513d6000823e3d601f19601f8201168201806040525081019061127f9190611ef6565b8092508193505050915091565b6000836040518060400160405280600a81526020017f494e5350454354494f4e00000000000000000000000000000000000000000000815250806040516020016112d6919061212c565b60405160208183030381529060405280519060200120600160009054906101000a900473ffffffffffffffffffffffffffffffffffffffff1673ffffffffffffffffffffffffffffffffffffffff166327820851336040518263ffffffff1660e01b81526004016113479190612143565b600060405180830381600087803b15801561136157600080fd5b505af1158015611375573d6000803e3d6000fd5b505050506040513d6000823e3d601f19601f8201168201806040525081019061139e9190611eb5565b6040516020016113ae919061212c565b60405160208183030381529060405280519060200120146113ce57600080fd5b806040516020016113df919061212c565b60405160208183030381529060405280519060200120600160009054906101000a900473ffffffffffffffffffffffffffffffffffffffff1673ffffffffffffffffffffffffffffffffffffffff16634d6b5e00846040518263ffffffff1660e01b81526004016114509190612143565b600060405180830381600087803b15801561146a57600080fd5b505af115801561147e573d6000803e3d6000fd5b505050506040513d6000823e3d601f19601f820116820180604052508101906114a79190611eb5565b6040516020016114b7919061212c565b60405160208183030381529060405280519060200120146114d757600080fd5b6000600160009054906101000a900473ffffffffffffffffffffffffffffffffffffffff1673ffffffffffffffffffffffffffffffffffffffff1663ceca77e48888886040518463ffffffff1660e01b81526004016115389392919061215e565b602060405180830381600087803b15801561155257600080fd5b505af1158015611566573d6000803e3d6000fd5b505050506040513d601f19601f8201168201806040525081019061158a9190611e8c565b90508673ffffffffffffffffffffffffffffffffffffffff163373ffffffffffffffffffffffffffffffffffffffff167fac8de0556c71e082f661f8ef7e891c813162561077ca14c445df2aed0174d27a60405160405180910390a38093505050509392505050565b606080600160009054906101000a900473ffffffffffffffffffffffffffffffffffffffff1673ffffffffffffffffffffffffffffffffffffffff1663160876ef846040518263ffffffff1660e01b81526004016116519190612143565b600060405180830381600087803b15801561166b57600080fd5b505af115801561167f573d6000803e3d6000fd5b505050506040513d6000823e3d601f19601f820116820180604052508101906116a89190611ef6565b8092508193505050915091565b60008054906101000a900473ffffffffffffffffffffffffffffffffffffffff1673ffffffffffffffffffffffffffffffffffffffff163373ffffffffffffffffffffffffffffffffffffffff161461170d57600080fd5b600073ffffffffffffffffffffffffffffffffffffffff168173ffffffffffffffffffffffffffffffffffffffff16141561174757600080fd5b8073ffffffffffffffffffffffffffffffffffffffff1660008054906101000a900473ffffffffffffffffffffffffffffffffffffffff1673ffffffffffffffffffffffffffffffffffffffff167f8be0079c531659141344cd1fd0a4f28419497f9722a3daafe3b4186f6b6457e060405160405180910390a3806000806101000a81548173ffffffffffffffffffffffffffffffffffffffff021916908373ffffffffffffffffffffffffffffffffffffffff16021790555050565b6000836040518060400160405280600981526020017f415353454d424c455200000000000000000000000000000000000000000000008152508060405160200161184e919061212c565b60405160208183030381529060405280519060200120600160009054906101000a900473ffffffffffffffffffffffffffffffffffffffff1673ffffffffffffffffffffffffffffffffffffffff166327820851336040518263ffffffff1660e01b81526004016118bf9190612143565b600060405180830381600087803b1580156118d957600080fd5b505af11580156118ed573d6000803e3d6000fd5b505050506040513d6000823e3d601f19601f820116820180604052508101906119169190611eb5565b604051602001611926919061212c565b604051602081830303815290604052805190602001201461194657600080fd5b80604051602001611957919061212c565b60405160208183030381529060405280519060200120600160009054906101000a900473ffffffffffffffffffffffffffffffffffffffff1673ffffffffffffffffffffffffffffffffffffffff16634d6b5e00846040518263ffffffff1660e01b81526004016119c89190612143565b600060405180830381600087803b1580156119e257600080fd5b505af11580156119f6573d6000803e3d6000fd5b505050506040513d6000823e3d601f19601f82011682018060405250810190611a1f9190611eb5565b604051602001611a2f919061212c565b6040516020818303038152906040528051906020012014611a4f57600080fd5b6000600160009054906101000a900473ffffffffffffffffffffffffffffffffffffffff1673ffffffffffffffffffffffffffffffffffffffff1663fd6c78d38888886040518463ffffffff1660e01b8152600401611ab09392919061215e565b602060405180830381600087803b158015611aca57600080fd5b505af1158015611ade573d6000803e3d6000fd5b505050506040513d601f19601f82011682018060405250810190611b029190611e8c565b90508673ffffffffffffffffffffffffffffffffffffffff163373ffffffffffffffffffffffffffffffffffffffff167f505fe04c1d426c453ca64ea0383aec77e361d513e4f280664004435baa96ed3d60405160405180910390a38093505050509392505050565b6000611b7e611b79846123b0565b61237f565b905082815260208101848484011115611b9657600080fd5b611ba1848285612445565b509392505050565b6000611bbc611bb7846123b0565b61237f565b905082815260208101848484011115611bd457600080fd5b611bdf848285612454565b509392505050565b600081359050611bf6816124c7565b92915050565b600081359050611c0b816124de565b92915050565b600081519050611c20816124de565b92915050565b600082601f830112611c3757600080fd5b8135611c47848260208601611b6b565b91505092915050565b600082601f830112611c6157600080fd5b8151611c71848260208601611ba9565b91505092915050565b600060208284031215611c8c57600080fd5b6000611c9a84828501611be7565b91505092915050565b600080600060608486031215611cb857600080fd5b6000611cc686828701611be7565b935050602084013567ffffffffffffffff811115611ce357600080fd5b611cef86828701611c26565b925050604084013567ffffffffffffffff811115611d0c57600080fd5b611d1886828701611c26565b9150509250925092565b60008060008060808587031215611d3857600080fd5b6000611d4687828801611be7565b945050602085013567ffffffffffffffff811115611d6357600080fd5b611d6f87828801611c26565b935050604085013567ffffffffffffffff811115611d8c57600080fd5b611d9887828801611c26565b925050606085013567ffffffffffffffff811115611db557600080fd5b611dc187828801611c26565b91505092959194509250565b600080600080600060a08688031215611de557600080fd5b6000611df388828901611be7565b955050602086013567ffffffffffffffff811115611e1057600080fd5b611e1c88828901611c26565b945050604086013567ffffffffffffffff811115611e3957600080fd5b611e4588828901611c26565b935050606086013567ffffffffffffffff811115611e6257600080fd5b611e6e88828901611c26565b9250506080611e7f88828901611bfc565b9150509295509295909350565b600060208284031215611e9e57600080fd5b6000611eac84828501611c11565b91505092915050565b600060208284031215611ec757600080fd5b600082015167ffffffffffffffff811115611ee157600080fd5b611eed84828501611c50565b91505092915050565b60008060408385031215611f0957600080fd5b600083015167ffffffffffffffff811115611f2357600080fd5b611f2f85828601611c50565b925050602083015167ffffffffffffffff811115611f4c57600080fd5b611f5885828601611c50565b9150509250929050565b600080600060608486031215611f7757600080fd5b600084015167ffffffffffffffff811115611f9157600080fd5b611f9d86828701611c50565b935050602084015167ffffffffffffffff811115611fba57600080fd5b611fc686828701611c50565b925050604084015167ffffffffffffffff811115611fe357600080fd5b611fef86828701611c50565b9150509250925092565b6000806000806080858703121561200f57600080fd5b600085015167ffffffffffffffff81111561202957600080fd5b61203587828801611c50565b945050602085015167ffffffffffffffff81111561205257600080fd5b61205e87828801611c50565b935050604085015167ffffffffffffffff81111561207b57600080fd5b61208787828801611c50565b925050606061209887828801611c11565b91505092959194509250565b6120ad81612407565b82525050565b6120bc81612419565b82525050565b60006120cd826123e0565b6120d781856123eb565b93506120e7818560208601612454565b6120f0816124b6565b840191505092915050565b6000612106826123e0565b61211081856123fc565b9350612120818560208601612454565b80840191505092915050565b600061213882846120fb565b915081905092915050565b600060208201905061215860008301846120a4565b92915050565b600060608201905061217360008301866120a4565b818103602083015261218581856120c2565b9050818103604083015261219981846120c2565b9050949350505050565b60006080820190506121b860008301876120a4565b81810360208301526121ca81866120c2565b905081810360408301526121de81856120c2565b905081810360608301526121f281846120c2565b905095945050505050565b600060a08201905061221260008301886120a4565b818103602083015261222481876120c2565b9050818103604083015261223881866120c2565b9050818103606083015261224c81856120c2565b905061225b60808301846120b3565b9695505050505050565b600060208201905061227a60008301846120b3565b92915050565b6000602082019050818103600083015261229a81846120c2565b905092915050565b600060408201905081810360008301526122bc81856120c2565b905081810360208301526122d081846120c2565b90509392505050565b600060608201905081810360008301526122f381866120c2565b9050818103602083015261230781856120c2565b9050818103604083015261231b81846120c2565b9050949350505050565b6000608082019050818103600083015261233f81876120c2565b9050818103602083015261235381866120c2565b9050818103604083015261236781856120c2565b905061237660608301846120b3565b95945050505050565b6000604051905081810181811067ffffffffffffffff821117156123a6576123a5612487565b5b8060405250919050565b600067ffffffffffffffff8211156123cb576123ca612487565b5b601f19601f8301169050602081019050919050565b600081519050919050565b600082825260208201905092915050565b600081905092915050565b600061241282612425565b9050919050565b60008115159050919050565b600073ffffffffffffffffffffffffffffffffffffffff82169050919050565b82818337600083830152505050565b60005b83811015612472578082015181840152602081019050612457565b83811115612481576000848401525b50505050565b7f4e487b7100000000000000000000000000000000000000000000000000000000600052604160045260246000fd5b6000601f19601f8301169050919050565b6124d081612407565b81146124db57600080fd5b50565b6124e781612419565b81146124f257600080fd5b5056fea26469706673582212203150f74eb66f9bb05db3c7948eb25ce8b793a2518cfe97a4e2410272ab6a5adf64736f6c63430008000033",
  "immutableReferences": {},
  "source": "// SPDX-License-Identifier: MIT\r\npragma solidity ^0.8.0;\r\nimport \"./SupplyChainStorage.sol\";\r\nimport \"./Ownable.sol\";\r\n\r\ncontract ProductSupplyChain is Ownable\r\n{\r\n  \r\n    event BuyingRawMaterial(address indexed user, address indexed batchNo);\r\n    event DoneAssembling(address indexed user, address indexed batchNo);\r\n    event DoneInspecting(address indexed user, address indexed batchNo);\r\n    event DonePacking(address indexed user, address indexed batchNo);\r\n    event DoneDelivery(address indexed user, address indexed batchNo);\r\n    \r\n     /* Storage Variables */    \r\n    SupplyChainStorage supplyChainStorage;\r\n    \r\n    /*Modifier*/\r\n    modifier isValidPerformer(address batchNo, string memory role) {\r\n        //keccak256(abi.encodePacked(_text, _num, _addr));\r\n    \r\n        require(keccak256(abi.encodePacked(supplyChainStorage.getUserRole(msg.sender))) == keccak256(abi.encodePacked(role)));\r\n        require(keccak256(abi.encodePacked(supplyChainStorage.getNextAction(batchNo))) == keccak256(abi.encodePacked(role)));\r\n        _;\r\n    }\r\n    \r\n    constructor(address _supplyChainAddress) {\r\n        supplyChainStorage = SupplyChainStorage(_supplyChainAddress);\r\n    }\r\n    \r\n    function getUser(address _batchNo) public returns (string memory name, string memory contactNo , string memory role, bool isActive){\r\n        (name, contactNo, role ,isActive) = supplyChainStorage.getUser(_batchNo);\r\n        return (name, contactNo, role, isActive);\r\n    }\r\n    \r\n    function setUser(address _userAddress,\r\n                      string memory _name, \r\n                      string memory _contactNo, \r\n                      string memory _role, \r\n                     bool _isActive) public onlyOwner returns (bool){\r\n                         \r\n    \r\n        bool status = supplyChainStorage.setUser(_userAddress, _name, _contactNo, _role, _isActive);\r\n        \r\n        return (status);\r\n    }\r\n    \r\n     \r\n    /* Get Next Action  */    \r\n\r\n    function getNextAction(address _batchNo) public returns(string memory action)\r\n    {\r\n       (action) = supplyChainStorage.getNextAction(_batchNo);\r\n       return (action);\r\n    }\r\n    \r\n     /* get Retailer */\r\n    \r\n    function getRetailerData(address _batchNo) public returns (string memory registrationNo ,\r\n                                                                     string memory shopName, string memory shopAddress) {\r\n        /* Call Storage Contract */\r\n        (registrationNo,  shopName, shopAddress) =  supplyChainStorage.getRetailerData(_batchNo);  \r\n         \r\n         return (registrationNo,  shopName, shopAddress) ;\r\n \r\n    }\r\n    \r\n    /* set Retailer */\r\n    \r\n    function setRetailerData(address _batchNo,\r\n                              string memory _registrationNo, string memory _shopName ,string memory _shopAddress) public returns(bool) {\r\n                                    \r\n        /* Call Storage Contract */\r\n        bool status = supplyChainStorage.setRetailerData(_batchNo, \r\n                                                         _registrationNo, \r\n                                                         _shopName,_shopAddress);  \r\n        \r\n        emit BuyingRawMaterial(msg.sender, _batchNo);\r\n        return (status);\r\n    }\r\n        \r\n     /* get Assembler */\r\n    \r\n    function getAssemblerData(address _batchNo) public returns (string memory expertiseArea,\r\n                                                                            string memory experience) {\r\n        /* Call Storage Contract */\r\n        (expertiseArea, experience) =  supplyChainStorage.getAssemblerData(_batchNo);  \r\n        \r\n         return (expertiseArea, experience);\r\n        \r\n    }\r\n    \r\n    /* set Assembler */\r\n    \r\n    function setAssemblerData(address _batchNo,\r\n                              string memory _expertiseArea, string memory _experience) \r\n                                public isValidPerformer(_batchNo,'ASSEMBLER') returns(bool) {\r\n                                    \r\n        /* Call Storage Contract */\r\n        bool status = supplyChainStorage.setAssemblerData(_batchNo, _expertiseArea, _experience);  \r\n        \r\n        emit DoneAssembling(msg.sender, _batchNo);\r\n        return (status);\r\n    }             \r\n    \r\n   \r\n    \r\n    \r\n    /* get Inspector */\r\n    \r\n    function getProductInspectorData(address _batchNo) public returns (string memory typeOfProduct ,string memory serviceChecked) {\r\n        /* Call Storage Contract */\r\n        (typeOfProduct, serviceChecked) = supplyChainStorage.getProductInspectorData(_batchNo);  \r\n        return (typeOfProduct, serviceChecked);\r\n    }\r\n    \r\n    /* set Inspector */\r\n    \r\n    function setProductInspectorData(address _batchNo,\r\n                                     string memory _typeOfProduct,\r\n                                     string memory _serviceChecked) \r\n                                public isValidPerformer(_batchNo,'INSPECTION') returns(bool) {\r\n        /* Call Storage Contract */\r\n        bool status = supplyChainStorage.setProductInspectorData(_batchNo, _typeOfProduct, _serviceChecked);  \r\n        \r\n        emit DoneInspecting(msg.sender, _batchNo);\r\n        return (status);\r\n    }\r\n\r\n    \r\n    /* get packer data */\r\n    \r\n    function getPackerData(address _batchNo) public returns (string memory typeOfProduct, string memory materialUsed) {\r\n        /* Call Storage Contract */\r\n        (typeOfProduct, materialUsed) =  supplyChainStorage.getPackerData(_batchNo);  \r\n        return  (typeOfProduct, materialUsed);\r\n    }\r\n    \r\n    /* set packer data */\r\n    \r\n    function setPackerData(address _batchNo,\r\n                               string memory _typeOfProduct,\r\n                               string memory _materialUsed) \r\n                                public isValidPerformer(_batchNo,'PACKAGING') returns(bool) {\r\n                                    \r\n        /* Call Storage Contract */\r\n        bool status = supplyChainStorage.setPackerData(_batchNo, _typeOfProduct, _materialUsed);  \r\n        \r\n        emit DonePacking(msg.sender, _batchNo);\r\n        return (status);\r\n    }\r\n    \r\n    /* get delivery data */\r\n    \r\n    function getDelivererData(address _batchNo) public returns (string memory typeOfProduct,\r\n                                                                                            string memory vehicalUsed) {\r\n        /* Call Storage Contract */\r\n       (typeOfProduct , vehicalUsed) =  supplyChainStorage.getDeliverData(_batchNo);  \r\n        \r\n        return (typeOfProduct , vehicalUsed);\r\n    }\r\n    \r\n    /* set delivery data */\r\n    \r\n    function setDeliverData(address _batchNo,\r\n                               string memory _typeOfProduct,\r\n                               string memory _vehicalUsed) \r\n                                public isValidPerformer(_batchNo,'DELIVERY') returns(bool) {\r\n                                    \r\n        /* Call Storage Contract */\r\n        bool status = supplyChainStorage.setDeliverData(_batchNo, _typeOfProduct,_vehicalUsed);  \r\n        \r\n        emit  DoneDelivery(msg.sender, _batchNo);\r\n        return (status);\r\n    }\r\n}\r\n",
  "sourcePath": "C:/Users/soura/project/IBC_Project/Supply_Chain_Ethereum/Project/contracts/ProductSupplyChain.sol",
  "compiler": {
    "name": "solc",
    "version": "0.8.0+commit.c7dfd78e.Emscripten.clang"
  },
  "schemaVersion": "3.4.1",
  "updatedAt": "2021-12-08T15:52:32.380Z",
  "networkType": "ethereum",
  "devdoc": {
    "kind": "dev",
    "methods": {
      "renounceOwnership()": {
        "details": "Allows the current owner to relinquish control of the contract."
      },
      "transferOwnership(address)": {
        "details": "Allows the current owner to transfer control of the contract to a newOwner.",
        "params": {
          "newOwner": "The address to transfer ownership to."
        }
      }
    },
    "version": 1
  },
  "userdoc": {
    "kind": "user",
    "methods": {},
    "version": 1
  }
}