{
  "contractName": "SupplyChainStorage",
  "abi": [
    {
      "inputs": [],
      "stateMutability": "nonpayable",
      "type": "constructor"
    },
    {
      "anonymous": false,
      "inputs": [
        {
          "indexed": false,
          "internalType": "address",
          "name": "caller",
          "type": "address"
        }
      ],
      "name": "AuthorizedCaller",
      "type": "event"
    },
    {
      "anonymous": false,
      "inputs": [
        {
          "indexed": false,
          "internalType": "address",
          "name": "caller",
          "type": "address"
        }
      ],
      "name": "DeAuthorizedCaller",
      "type": "event"
    },
    {
      "anonymous": false,
      "inputs": [
        {
          "indexed": true,
          "internalType": "address",
          "name": "oldOwner",
          "type": "address"
        }
      ],
      "name": "OwnershipRenounced",
      "type": "event"
    },
    {
      "anonymous": false,
      "inputs": [
        {
          "indexed": true,
          "internalType": "address",
          "name": "oldOwner",
          "type": "address"
        },
        {
          "indexed": true,
          "internalType": "address",
          "name": "newOwner",
          "type": "address"
        }
      ],
      "name": "OwnershipTransferred",
      "type": "event"
    },
    {
      "inputs": [],
      "name": "lastAccess",
      "outputs": [
        {
          "internalType": "address",
          "name": "",
          "type": "address"
        }
      ],
      "stateMutability": "view",
      "type": "function"
    },
    {
      "inputs": [],
      "name": "owner",
      "outputs": [
        {
          "internalType": "address",
          "name": "",
          "type": "address"
        }
      ],
      "stateMutability": "view",
      "type": "function"
    },
    {
      "inputs": [],
      "name": "renounceOwnership",
      "outputs": [],
      "stateMutability": "nonpayable",
      "type": "function"
    },
    {
      "inputs": [
        {
          "internalType": "address",
          "name": "newOwner",
          "type": "address"
        }
      ],
      "name": "transferOwnership",
      "outputs": [],
      "stateMutability": "nonpayable",
      "type": "function"
    },
    {
      "inputs": [
        {
          "internalType": "address",
          "name": "_caller",
          "type": "address"
        }
      ],
      "name": "authorizeCaller",
      "outputs": [
        {
          "internalType": "bool",
          "name": "",
          "type": "bool"
        }
      ],
      "stateMutability": "nonpayable",
      "type": "function"
    },
    {
      "inputs": [
        {
          "internalType": "address",
          "name": "_caller",
          "type": "address"
        }
      ],
      "name": "deAuthorizeCaller",
      "outputs": [
        {
          "internalType": "bool",
          "name": "",
          "type": "bool"
        }
      ],
      "stateMutability": "nonpayable",
      "type": "function"
    },
    {
      "inputs": [
        {
          "internalType": "address",
          "name": "_userAddress",
          "type": "address"
        }
      ],
      "name": "getUserRole",
      "outputs": [
        {
          "internalType": "string",
          "name": "",
          "type": "string"
        }
      ],
      "stateMutability": "nonpayable",
      "type": "function"
    },
    {
      "inputs": [
        {
          "internalType": "address",
          "name": "_batchNo",
          "type": "address"
        }
      ],
      "name": "getNextAction",
      "outputs": [
        {
          "internalType": "string",
          "name": "",
          "type": "string"
        }
      ],
      "stateMutability": "nonpayable",
      "type": "function"
    },
    {
      "inputs": [
        {
          "internalType": "address",
          "name": "_userAddress",
          "type": "address"
        },
        {
          "internalType": "string",
          "name": "_name",
          "type": "string"
        },
        {
          "internalType": "string",
          "name": "_contactNo",
          "type": "string"
        },
        {
          "internalType": "string",
          "name": "_role",
          "type": "string"
        },
        {
          "internalType": "bool",
          "name": "_isActive",
          "type": "bool"
        }
      ],
      "name": "setUser",
      "outputs": [
        {
          "internalType": "bool",
          "name": "",
          "type": "bool"
        }
      ],
      "stateMutability": "nonpayable",
      "type": "function"
    },
    {
      "inputs": [
        {
          "internalType": "address",
          "name": "_userAddress",
          "type": "address"
        }
      ],
      "name": "getUser",
      "outputs": [
        {
          "internalType": "string",
          "name": "name",
          "type": "string"
        },
        {
          "internalType": "string",
          "name": "contactNo",
          "type": "string"
        },
        {
          "internalType": "string",
          "name": "role",
          "type": "string"
        },
        {
          "internalType": "bool",
          "name": "isActive",
          "type": "bool"
        }
      ],
      "stateMutability": "nonpayable",
      "type": "function"
    },
    {
      "inputs": [
        {
          "internalType": "address",
          "name": "batchNo",
          "type": "address"
        },
        {
          "internalType": "string",
          "name": "_registrationNo",
          "type": "string"
        },
        {
          "internalType": "string",
          "name": "_shopName",
          "type": "string"
        },
        {
          "internalType": "string",
          "name": "_shopAddress",
          "type": "string"
        }
      ],
      "name": "setRetailerData",
      "outputs": [
        {
          "internalType": "bool",
          "name": "",
          "type": "bool"
        }
      ],
      "stateMutability": "nonpayable",
      "type": "function"
    },
    {
      "inputs": [
        {
          "internalType": "address",
          "name": "batchNo",
          "type": "address"
        }
      ],
      "name": "getRetailerData",
      "outputs": [
        {
          "internalType": "string",
          "name": "registrationNo",
          "type": "string"
        },
        {
          "internalType": "string",
          "name": "shopName",
          "type": "string"
        },
        {
          "internalType": "string",
          "name": "shopAddress",
          "type": "string"
        }
      ],
      "stateMutability": "nonpayable",
      "type": "function"
    },
    {
      "inputs": [
        {
          "internalType": "address",
          "name": "batchNo",
          "type": "address"
        },
        {
          "internalType": "string",
          "name": "_expertiseArea",
          "type": "string"
        },
        {
          "internalType": "string",
          "name": "_experience",
          "type": "string"
        }
      ],
      "name": "setAssemblerData",
      "outputs": [
        {
          "internalType": "bool",
          "name": "",
          "type": "bool"
        }
      ],
      "stateMutability": "nonpayable",
      "type": "function"
    },
    {
      "inputs": [
        {
          "internalType": "address",
          "name": "batchNo",
          "type": "address"
        }
      ],
      "name": "getAssemblerData",
      "outputs": [
        {
          "internalType": "string",
          "name": "expertiseArea",
          "type": "string"
        },
        {
          "internalType": "string",
          "name": "experience",
          "type": "string"
        }
      ],
      "stateMutability": "nonpayable",
      "type": "function"
    },
    {
      "inputs": [
        {
          "internalType": "address",
          "name": "batchNo",
          "type": "address"
        },
        {
          "internalType": "string",
          "name": "_typeOfProduct",
          "type": "string"
        },
        {
          "internalType": "string",
          "name": "_serviceChecked",
          "type": "string"
        }
      ],
      "name": "setProductInspectorData",
      "outputs": [
        {
          "internalType": "bool",
          "name": "",
          "type": "bool"
        }
      ],
      "stateMutability": "nonpayable",
      "type": "function"
    },
    {
      "inputs": [
        {
          "internalType": "address",
          "name": "batchNo",
          "type": "address"
        }
      ],
      "name": "getProductInspectorData",
      "outputs": [
        {
          "internalType": "string",
          "name": "typeOfProduct",
          "type": "string"
        },
        {
          "internalType": "string",
          "name": "serviceChecked",
          "type": "string"
        }
      ],
      "stateMutability": "nonpayable",
      "type": "function"
    },
    {
      "inputs": [
        {
          "internalType": "address",
          "name": "batchNo",
          "type": "address"
        },
        {
          "internalType": "string",
          "name": "_typeOfProduct",
          "type": "string"
        },
        {
          "internalType": "string",
          "name": "_materialUsed",
          "type": "string"
        }
      ],
      "name": "setPackerData",
      "outputs": [
        {
          "internalType": "bool",
          "name": "",
          "type": "bool"
        }
      ],
      "stateMutability": "nonpayable",
      "type": "function"
    },
    {
      "inputs": [
        {
          "internalType": "address",
          "name": "batchNo",
          "type": "address"
        }
      ],
      "name": "getPackerData",
      "outputs": [
        {
          "internalType": "string",
          "name": "_typeOfProduct",
          "type": "string"
        },
        {
          "internalType": "string",
          "name": "_materialUsed",
          "type": "string"
        }
      ],
      "stateMutability": "nonpayable",
      "type": "function"
    },
    {
      "inputs": [
        {
          "internalType": "address",
          "name": "batchNo",
          "type": "address"
        },
        {
          "internalType": "string",
          "name": "_typeOfProduct",
          "type": "string"
        },
        {
          "internalType": "string",
          "name": "_vehicalUsed",
          "type": "string"
        }
      ],
      "name": "setDeliverData",
      "outputs": [
        {
          "internalType": "bool",
          "name": "",
          "type": "bool"
        }
      ],
      "stateMutability": "nonpayable",
      "type": "function"
    },
    {
      "inputs": [
        {
          "internalType": "address",
          "name": "batchNo",
          "type": "address"
        }
      ],
      "name": "getDeliverData",
      "outputs": [
        {
          "internalType": "string",
          "name": "_typeOfProduct",
          "type": "string"
        },
        {
          "internalType": "string",
          "name": "_vehicalUsed",
          "type": "string"
        }
      ],
      "stateMutability": "nonpayable",
      "type": "function"
    }
  ],
  "bytecode": "0x60806040523480156200001157600080fd5b50336000806101000a81548173ffffffffffffffffffffffffffffffffffffffff021916908373ffffffffffffffffffffffffffffffffffffffff1602179055506001600460003373ffffffffffffffffffffffffffffffffffffffff1673ffffffffffffffffffffffffffffffffffffffff16815260200190815260200160002060006101000a81548160ff021916908360ff1602179055507f8afeca650897be3183b7c0d24eba96a1b990f75c4bd74a0cfb2c0a71aec48e6133604051620000dc9190620000fb565b60405180910390a16200014c565b620000f58162000118565b82525050565b6000602082019050620001126000830184620000ea565b92915050565b600062000125826200012c565b9050919050565b600073ffffffffffffffffffffffffffffffffffffffff82169050919050565b612da3806200015c6000396000f3fe608060405234801561001057600080fd5b506004361061012c5760003560e01c80636f77926b116100ad578063bdf3121b11610071578063bdf3121b146103be578063c4839363146103ef578063ceca77e414610420578063f2fde38b14610450578063fd6c78d31461046c5761012c565b80636f77926b14610303578063715018a6146103365780638da5cb5b1461034057806390ead4931461035e578063933ee1011461038e5761012c565b806327820851116100f457806327820851146102235780632c388d5d146102535780633480898b146102835780634d6b5e00146102a15780636a7352d5146102d15761012c565b80630e4ab87f146101315780630e9b821414610162578063160876ef146101925780631bcd250a146101c35780631f10a010146101f3575b600080fd5b61014b60048036038101906101469190612803565b61049c565b604051610159929190612ac4565b60405180910390f35b61017c600480360381019061017791906128ab565b6106c2565b6040516101899190612a87565b60405180910390f35b6101ac60048036038101906101a79190612803565b6108e8565b6040516101ba929190612ac4565b60405180910390f35b6101dd60048036038101906101d89190612803565b610b0e565b6040516101ea9190612a87565b60405180910390f35b61020d60048036038101906102089190612956565b610c02565b60405161021a9190612a87565b60405180910390f35b61023d60048036038101906102389190612803565b610e04565b60405161024a9190612aa2565b60405180910390f35b61026d60048036038101906102689190612803565b610f72565b60405161027a9190612a87565b60405180910390f35b61028b611066565b6040516102989190612a6c565b60405180910390f35b6102bb60048036038101906102b69190612803565b61108c565b6040516102c89190612aa2565b60405180910390f35b6102eb60048036038101906102e69190612803565b6111fa565b6040516102fa93929190612afb565b60405180910390f35b61031d60048036038101906103189190612803565b6114bd565b60405161032d9493929190612b47565b60405180910390f35b61033e6117d8565b005b6103486118d6565b6040516103559190612a6c565b60405180910390f35b6103786004803603810190610373919061282c565b6118fa565b6040516103859190612a87565b60405180910390f35b6103a860048036038101906103a3919061282c565b611ae5565b6040516103b59190612a87565b60405180910390f35b6103d860048036038101906103d39190612803565b611cd0565b6040516103e6929190612ac4565b60405180910390f35b61040960048036038101906104049190612803565b611ef6565b604051610417929190612ac4565b60405180910390f35b61043a6004803603810190610435919061282c565b61211c565b6040516104479190612a87565b60405180910390f35b61046a60048036038101906104659190612803565b612307565b005b6104866004803603810190610481919061282c565b612456565b6040516104939190612a87565b60405180910390f35b60608033600160006101000a81548173ffffffffffffffffffffffffffffffffffffffff021916908373ffffffffffffffffffffffffffffffffffffffff1602179055506001600460003373ffffffffffffffffffffffffffffffffffffffff1673ffffffffffffffffffffffffffffffffffffffff16815260200190815260200160002060009054906101000a900460ff1660ff161461053c57600080fd5b6000600660008573ffffffffffffffffffffffffffffffffffffffff1673ffffffffffffffffffffffffffffffffffffffff16815260200190815260200160002060405180604001604052908160008201805461059890612c9e565b80601f01602080910402602001604051908101604052809291908181526020018280546105c490612c9e565b80156106115780601f106105e657610100808354040283529160200191610611565b820191906000526020600020905b8154815290600101906020018083116105f457829003601f168201915b5050505050815260200160018201805461062a90612c9e565b80601f016020809104026020016040519081016040528092919081815260200182805461065690612c9e565b80156106a35780601f10610678576101008083540402835291602001916106a3565b820191906000526020600020905b81548152906001019060200180831161068657829003601f168201915b5050505050815250509050806000015181602001519250925050915091565b600033600160006101000a81548173ffffffffffffffffffffffffffffffffffffffff021916908373ffffffffffffffffffffffffffffffffffffffff1602179055506001600460003373ffffffffffffffffffffffffffffffffffffffff1673ffffffffffffffffffffffffffffffffffffffff16815260200190815260200160002060009054906101000a900460ff1660ff161461076157600080fd5b836016600001908051906020019061077a929190612641565b508260166001019080519060200190610794929190612641565b5081601660020190805190602001906107ae929190612641565b506016600960008773ffffffffffffffffffffffffffffffffffffffff1673ffffffffffffffffffffffffffffffffffffffff168152602001908152602001600020600082018160000190805461080490612c9e565b61080f9291906126c7565b50600182018160010190805461082490612c9e565b61082f9291906126c7565b50600282018160020190805461084490612c9e565b61084f9291906126c7565b509050506040518060400160405280600981526020017f415353454d424c45520000000000000000000000000000000000000000000000815250600a60008773ffffffffffffffffffffffffffffffffffffffff1673ffffffffffffffffffffffffffffffffffffffff16815260200190815260200160002090805190602001906108db929190612641565b5060019050949350505050565b60608033600160006101000a81548173ffffffffffffffffffffffffffffffffffffffff021916908373ffffffffffffffffffffffffffffffffffffffff1602179055506001600460003373ffffffffffffffffffffffffffffffffffffffff1673ffffffffffffffffffffffffffffffffffffffff16815260200190815260200160002060009054906101000a900460ff1660ff161461098857600080fd5b6000600860008573ffffffffffffffffffffffffffffffffffffffff1673ffffffffffffffffffffffffffffffffffffffff1681526020019081526020016000206040518060400160405290816000820180546109e490612c9e565b80601f0160208091040260200160405190810160405280929190818152602001828054610a1090612c9e565b8015610a5d5780601f10610a3257610100808354040283529160200191610a5d565b820191906000526020600020905b815481529060010190602001808311610a4057829003601f168201915b50505050508152602001600182018054610a7690612c9e565b80601f0160208091040260200160405190810160405280929190818152602001828054610aa290612c9e565b8015610aef5780601f10610ac457610100808354040283529160200191610aef565b820191906000526020600020905b815481529060010190602001808311610ad257829003601f168201915b5050505050815250509050806000015181602001519250925050915091565b60008060009054906101000a900473ffffffffffffffffffffffffffffffffffffffff1673ffffffffffffffffffffffffffffffffffffffff163373ffffffffffffffffffffffffffffffffffffffff1614610b6957600080fd5b6000600460008473ffffffffffffffffffffffffffffffffffffffff1673ffffffffffffffffffffffffffffffffffffffff16815260200190815260200160002060006101000a81548160ff021916908360ff1602179055507f9e8ca6ff03906e81e8a6a03d4f96b7edb0b97f0ed9d07ef1b699fff63438549682604051610bf19190612a6c565b60405180910390a160019050919050565b600033600160006101000a81548173ffffffffffffffffffffffffffffffffffffffff021916908373ffffffffffffffffffffffffffffffffffffffff1602179055506001600460003373ffffffffffffffffffffffffffffffffffffffff1673ffffffffffffffffffffffffffffffffffffffff16815260200190815260200160002060009054906101000a900460ff1660ff1614610ca157600080fd5b84600b6000019080519060200190610cba929190612641565b5083600b6001019080519060200190610cd4929190612641565b5081600b60020160006101000a81548160ff021916908315150217905550600b600260008873ffffffffffffffffffffffffffffffffffffffff1673ffffffffffffffffffffffffffffffffffffffff1681526020019081526020016000206000820181600001908054610d4790612c9e565b610d529291906126c7565b506001820181600101908054610d6790612c9e565b610d729291906126c7565b506002820160009054906101000a900460ff168160020160006101000a81548160ff02191690831515021790555090505082600360008873ffffffffffffffffffffffffffffffffffffffff1673ffffffffffffffffffffffffffffffffffffffff1681526020019081526020016000209080519060200190610df6929190612641565b506001905095945050505050565b606033600160006101000a81548173ffffffffffffffffffffffffffffffffffffffff021916908373ffffffffffffffffffffffffffffffffffffffff1602179055506001600460003373ffffffffffffffffffffffffffffffffffffffff1673ffffffffffffffffffffffffffffffffffffffff16815260200190815260200160002060009054906101000a900460ff1660ff1614610ea357600080fd5b600360008373ffffffffffffffffffffffffffffffffffffffff1673ffffffffffffffffffffffffffffffffffffffff1681526020019081526020016000208054610eed90612c9e565b80601f0160208091040260200160405190810160405280929190818152602001828054610f1990612c9e565b8015610f665780601f10610f3b57610100808354040283529160200191610f66565b820191906000526020600020905b815481529060010190602001808311610f4957829003601f168201915b50505050509050919050565b60008060009054906101000a900473ffffffffffffffffffffffffffffffffffffffff1673ffffffffffffffffffffffffffffffffffffffff163373ffffffffffffffffffffffffffffffffffffffff1614610fcd57600080fd5b6001600460008473ffffffffffffffffffffffffffffffffffffffff1673ffffffffffffffffffffffffffffffffffffffff16815260200190815260200160002060006101000a81548160ff021916908360ff1602179055507f8afeca650897be3183b7c0d24eba96a1b990f75c4bd74a0cfb2c0a71aec48e61826040516110559190612a6c565b60405180910390a160019050919050565b600160009054906101000a900473ffffffffffffffffffffffffffffffffffffffff1681565b606033600160006101000a81548173ffffffffffffffffffffffffffffffffffffffff021916908373ffffffffffffffffffffffffffffffffffffffff1602179055506001600460003373ffffffffffffffffffffffffffffffffffffffff1673ffffffffffffffffffffffffffffffffffffffff16815260200190815260200160002060009054906101000a900460ff1660ff161461112b57600080fd5b600a60008373ffffffffffffffffffffffffffffffffffffffff1673ffffffffffffffffffffffffffffffffffffffff168152602001908152602001600020805461117590612c9e565b80601f01602080910402602001604051908101604052809291908181526020018280546111a190612c9e565b80156111ee5780601f106111c3576101008083540402835291602001916111ee565b820191906000526020600020905b8154815290600101906020018083116111d157829003601f168201915b50505050509050919050565b606080606033600160006101000a81548173ffffffffffffffffffffffffffffffffffffffff021916908373ffffffffffffffffffffffffffffffffffffffff1602179055506001600460003373ffffffffffffffffffffffffffffffffffffffff1673ffffffffffffffffffffffffffffffffffffffff16815260200190815260200160002060009054906101000a900460ff1660ff161461129c57600080fd5b6000600960008673ffffffffffffffffffffffffffffffffffffffff1673ffffffffffffffffffffffffffffffffffffffff1681526020019081526020016000206040518060600160405290816000820180546112f890612c9e565b80601f016020809104026020016040519081016040528092919081815260200182805461132490612c9e565b80156113715780601f1061134657610100808354040283529160200191611371565b820191906000526020600020905b81548152906001019060200180831161135457829003601f168201915b5050505050815260200160018201805461138a90612c9e565b80601f01602080910402602001604051908101604052809291908181526020018280546113b690612c9e565b80156114035780601f106113d857610100808354040283529160200191611403565b820191906000526020600020905b8154815290600101906020018083116113e657829003601f168201915b5050505050815260200160028201805461141c90612c9e565b80601f016020809104026020016040519081016040528092919081815260200182805461144890612c9e565b80156114955780601f1061146a57610100808354040283529160200191611495565b820191906000526020600020905b81548152906001019060200180831161147857829003601f168201915b5050505050815250509050806000015181602001518260400151935093509350509193909250565b6060806060600033600160006101000a81548173ffffffffffffffffffffffffffffffffffffffff021916908373ffffffffffffffffffffffffffffffffffffffff1602179055506001600460003373ffffffffffffffffffffffffffffffffffffffff1673ffffffffffffffffffffffffffffffffffffffff16815260200190815260200160002060009054906101000a900460ff1660ff161461156157600080fd5b6000600260008773ffffffffffffffffffffffffffffffffffffffff1673ffffffffffffffffffffffffffffffffffffffff1681526020019081526020016000206040518060600160405290816000820180546115bd90612c9e565b80601f01602080910402602001604051908101604052809291908181526020018280546115e990612c9e565b80156116365780601f1061160b57610100808354040283529160200191611636565b820191906000526020600020905b81548152906001019060200180831161161957829003601f168201915b5050505050815260200160018201805461164f90612c9e565b80601f016020809104026020016040519081016040528092919081815260200182805461167b90612c9e565b80156116c85780601f1061169d576101008083540402835291602001916116c8565b820191906000526020600020905b8154815290600101906020018083116116ab57829003601f168201915b505050505081526020016002820160009054906101000a900460ff161515151581525050905080600001518160200151600360008973ffffffffffffffffffffffffffffffffffffffff1673ffffffffffffffffffffffffffffffffffffffff168152602001908152602001600020836040015181805461174890612c9e565b80601f016020809104026020016040519081016040528092919081815260200182805461177490612c9e565b80156117c15780601f10611796576101008083540402835291602001916117c1565b820191906000526020600020905b8154815290600101906020018083116117a457829003601f168201915b505050505091509450945094509450509193509193565b60008054906101000a900473ffffffffffffffffffffffffffffffffffffffff1673ffffffffffffffffffffffffffffffffffffffff163373ffffffffffffffffffffffffffffffffffffffff161461183057600080fd5b60008054906101000a900473ffffffffffffffffffffffffffffffffffffffff1673ffffffffffffffffffffffffffffffffffffffff167ff8df31144d9c2f0f6b59d69b8b98abd5459d07f2742c4df920b25aae33c6482060405160405180910390a260008060006101000a81548173ffffffffffffffffffffffffffffffffffffffff021916908373ffffffffffffffffffffffffffffffffffffffff160217905550565b60008054906101000a900473ffffffffffffffffffffffffffffffffffffffff1681565b600033600160006101000a81548173ffffffffffffffffffffffffffffffffffffffff021916908373ffffffffffffffffffffffffffffffffffffffff1602179055506001600460003373ffffffffffffffffffffffffffffffffffffffff1673ffffffffffffffffffffffffffffffffffffffff16815260200190815260200160002060009054906101000a900460ff1660ff161461199957600080fd5b82601060000190805190602001906119b2929190612641565b5081601060010190805190602001906119cc929190612641565b506010600760008673ffffffffffffffffffffffffffffffffffffffff1673ffffffffffffffffffffffffffffffffffffffff1681526020019081526020016000206000820181600001908054611a2290612c9e565b611a2d9291906126c7565b506001820181600101908054611a4290612c9e565b611a4d9291906126c7565b509050506040518060400160405280600881526020017f44454c4956455259000000000000000000000000000000000000000000000000815250600a60008673ffffffffffffffffffffffffffffffffffffffff1673ffffffffffffffffffffffffffffffffffffffff1681526020019081526020016000209080519060200190611ad9929190612641565b50600190509392505050565b600033600160006101000a81548173ffffffffffffffffffffffffffffffffffffffff021916908373ffffffffffffffffffffffffffffffffffffffff1602179055506001600460003373ffffffffffffffffffffffffffffffffffffffff1673ffffffffffffffffffffffffffffffffffffffff16815260200190815260200160002060009054906101000a900460ff1660ff1614611b8457600080fd5b8260126000019080519060200190611b9d929190612641565b508160126001019080519060200190611bb7929190612641565b506012600860008673ffffffffffffffffffffffffffffffffffffffff1673ffffffffffffffffffffffffffffffffffffffff1681526020019081526020016000206000820181600001908054611c0d90612c9e565b611c189291906126c7565b506001820181600101908054611c2d90612c9e565b611c389291906126c7565b509050506040518060400160405280600681526020017f504552534f4e0000000000000000000000000000000000000000000000000000815250600a60008673ffffffffffffffffffffffffffffffffffffffff1673ffffffffffffffffffffffffffffffffffffffff1681526020019081526020016000209080519060200190611cc4929190612641565b50600190509392505050565b60608033600160006101000a81548173ffffffffffffffffffffffffffffffffffffffff021916908373ffffffffffffffffffffffffffffffffffffffff1602179055506001600460003373ffffffffffffffffffffffffffffffffffffffff1673ffffffffffffffffffffffffffffffffffffffff16815260200190815260200160002060009054906101000a900460ff1660ff1614611d7057600080fd5b6000600560008573ffffffffffffffffffffffffffffffffffffffff1673ffffffffffffffffffffffffffffffffffffffff168152602001908152602001600020604051806040016040529081600082018054611dcc90612c9e565b80601f0160208091040260200160405190810160405280929190818152602001828054611df890612c9e565b8015611e455780601f10611e1a57610100808354040283529160200191611e45565b820191906000526020600020905b815481529060010190602001808311611e2857829003601f168201915b50505050508152602001600182018054611e5e90612c9e565b80601f0160208091040260200160405190810160405280929190818152602001828054611e8a90612c9e565b8015611ed75780601f10611eac57610100808354040283529160200191611ed7565b820191906000526020600020905b815481529060010190602001808311611eba57829003601f168201915b5050505050815250509050806000015181602001519250925050915091565b60608033600160006101000a81548173ffffffffffffffffffffffffffffffffffffffff021916908373ffffffffffffffffffffffffffffffffffffffff1602179055506001600460003373ffffffffffffffffffffffffffffffffffffffff1673ffffffffffffffffffffffffffffffffffffffff16815260200190815260200160002060009054906101000a900460ff1660ff1614611f9657600080fd5b6000600760008573ffffffffffffffffffffffffffffffffffffffff1673ffffffffffffffffffffffffffffffffffffffff168152602001908152602001600020604051806040016040529081600082018054611ff290612c9e565b80601f016020809104026020016040519081016040528092919081815260200182805461201e90612c9e565b801561206b5780601f106120405761010080835404028352916020019161206b565b820191906000526020600020905b81548152906001019060200180831161204e57829003601f168201915b5050505050815260200160018201805461208490612c9e565b80601f01602080910402602001604051908101604052809291908181526020018280546120b090612c9e565b80156120fd5780601f106120d2576101008083540402835291602001916120fd565b820191906000526020600020905b8154815290600101906020018083116120e057829003601f168201915b5050505050815250509050806000015181602001519250925050915091565b600033600160006101000a81548173ffffffffffffffffffffffffffffffffffffffff021916908373ffffffffffffffffffffffffffffffffffffffff1602179055506001600460003373ffffffffffffffffffffffffffffffffffffffff1673ffffffffffffffffffffffffffffffffffffffff16815260200190815260200160002060009054906101000a900460ff1660ff16146121bb57600080fd5b82600e60000190805190602001906121d4929190612641565b5081600e60010190805190602001906121ee929190612641565b50600e600560008673ffffffffffffffffffffffffffffffffffffffff1673ffffffffffffffffffffffffffffffffffffffff168152602001908152602001600020600082018160000190805461224490612c9e565b61224f9291906126c7565b50600182018160010190805461226490612c9e565b61226f9291906126c7565b509050506040518060400160405280600981526020017f5041434b4147494e470000000000000000000000000000000000000000000000815250600a60008673ffffffffffffffffffffffffffffffffffffffff1673ffffffffffffffffffffffffffffffffffffffff16815260200190815260200160002090805190602001906122fb929190612641565b50600190509392505050565b60008054906101000a900473ffffffffffffffffffffffffffffffffffffffff1673ffffffffffffffffffffffffffffffffffffffff163373ffffffffffffffffffffffffffffffffffffffff161461235f57600080fd5b600073ffffffffffffffffffffffffffffffffffffffff168173ffffffffffffffffffffffffffffffffffffffff16141561239957600080fd5b8073ffffffffffffffffffffffffffffffffffffffff1660008054906101000a900473ffffffffffffffffffffffffffffffffffffffff1673ffffffffffffffffffffffffffffffffffffffff167f8be0079c531659141344cd1fd0a4f28419497f9722a3daafe3b4186f6b6457e060405160405180910390a3806000806101000a81548173ffffffffffffffffffffffffffffffffffffffff021916908373ffffffffffffffffffffffffffffffffffffffff16021790555050565b600033600160006101000a81548173ffffffffffffffffffffffffffffffffffffffff021916908373ffffffffffffffffffffffffffffffffffffffff1602179055506001600460003373ffffffffffffffffffffffffffffffffffffffff1673ffffffffffffffffffffffffffffffffffffffff16815260200190815260200160002060009054906101000a900460ff1660ff16146124f557600080fd5b826014600001908051906020019061250e929190612641565b508160146001019080519060200190612528929190612641565b506014600660008673ffffffffffffffffffffffffffffffffffffffff1673ffffffffffffffffffffffffffffffffffffffff168152602001908152602001600020600082018160000190805461257e90612c9e565b6125899291906126c7565b50600182018160010190805461259e90612c9e565b6125a99291906126c7565b509050506040518060400160405280600a81526020017f494e5350454354494f4e00000000000000000000000000000000000000000000815250600a60008673ffffffffffffffffffffffffffffffffffffffff1673ffffffffffffffffffffffffffffffffffffffff1681526020019081526020016000209080519060200190612635929190612641565b50600190509392505050565b82805461264d90612c9e565b90600052602060002090601f01602090048101928261266f57600085556126b6565b82601f1061268857805160ff19168380011785556126b6565b828001600101855582156126b6579182015b828111156126b557825182559160200191906001019061269a565b5b5090506126c39190612754565b5090565b8280546126d390612c9e565b90600052602060002090601f0160209004810192826126f55760008555612743565b82601f106127065780548555612743565b8280016001018555821561274357600052602060002091601f016020900482015b82811115612742578254825591600101919060010190612727565b5b5090506127509190612754565b5090565b5b8082111561276d576000816000905550600101612755565b5090565b600061278461277f84612bd2565b612ba1565b90508281526020810184848401111561279c57600080fd5b6127a7848285612c5c565b509392505050565b6000813590506127be81612d3f565b92915050565b6000813590506127d381612d56565b92915050565b600082601f8301126127ea57600080fd5b81356127fa848260208601612771565b91505092915050565b60006020828403121561281557600080fd5b6000612823848285016127af565b91505092915050565b60008060006060848603121561284157600080fd5b600061284f868287016127af565b935050602084013567ffffffffffffffff81111561286c57600080fd5b612878868287016127d9565b925050604084013567ffffffffffffffff81111561289557600080fd5b6128a1868287016127d9565b9150509250925092565b600080600080608085870312156128c157600080fd5b60006128cf878288016127af565b945050602085013567ffffffffffffffff8111156128ec57600080fd5b6128f8878288016127d9565b935050604085013567ffffffffffffffff81111561291557600080fd5b612921878288016127d9565b925050606085013567ffffffffffffffff81111561293e57600080fd5b61294a878288016127d9565b91505092959194509250565b600080600080600060a0868803121561296e57600080fd5b600061297c888289016127af565b955050602086013567ffffffffffffffff81111561299957600080fd5b6129a5888289016127d9565b945050604086013567ffffffffffffffff8111156129c257600080fd5b6129ce888289016127d9565b935050606086013567ffffffffffffffff8111156129eb57600080fd5b6129f7888289016127d9565b9250506080612a08888289016127c4565b9150509295509295909350565b612a1e81612c1e565b82525050565b612a2d81612c30565b82525050565b6000612a3e82612c02565b612a488185612c0d565b9350612a58818560208601612c6b565b612a6181612d2e565b840191505092915050565b6000602082019050612a816000830184612a15565b92915050565b6000602082019050612a9c6000830184612a24565b92915050565b60006020820190508181036000830152612abc8184612a33565b905092915050565b60006040820190508181036000830152612ade8185612a33565b90508181036020830152612af28184612a33565b90509392505050565b60006060820190508181036000830152612b158186612a33565b90508181036020830152612b298185612a33565b90508181036040830152612b3d8184612a33565b9050949350505050565b60006080820190508181036000830152612b618187612a33565b90508181036020830152612b758186612a33565b90508181036040830152612b898185612a33565b9050612b986060830184612a24565b95945050505050565b6000604051905081810181811067ffffffffffffffff82111715612bc857612bc7612cff565b5b8060405250919050565b600067ffffffffffffffff821115612bed57612bec612cff565b5b601f19601f8301169050602081019050919050565b600081519050919050565b600082825260208201905092915050565b6000612c2982612c3c565b9050919050565b60008115159050919050565b600073ffffffffffffffffffffffffffffffffffffffff82169050919050565b82818337600083830152505050565b60005b83811015612c89578082015181840152602081019050612c6e565b83811115612c98576000848401525b50505050565b60006002820490506001821680612cb657607f821691505b60208210811415612cca57612cc9612cd0565b5b50919050565b7f4e487b7100000000000000000000000000000000000000000000000000000000600052602260045260246000fd5b7f4e487b7100000000000000000000000000000000000000000000000000000000600052604160045260246000fd5b6000601f19601f8301169050919050565b612d4881612c1e565b8114612d5357600080fd5b50565b612d5f81612c30565b8114612d6a57600080fd5b5056fea264697066735822122030d5dbea025327ec7b1e6962c5f7c86f0d53b7f0b53e00d3d37430cd63b6402e64736f6c63430008000033",
  "immutableReferences": {},
  "source": "// SPDX-License-Identifier: MIT\npragma solidity ^0.8.0;\nimport \"./SupplyChainStorageOwnable.sol\";\n\ncontract SupplyChainStorage is SupplyChainStorageOwnable {\n    \n    address public lastAccess;\n    constructor() {\n        authorizedCaller[msg.sender] = 1;\n        emit AuthorizedCaller(msg.sender);\n    }\n    \n    /* Events */\n    event AuthorizedCaller(address caller);\n    event DeAuthorizedCaller(address caller);\n    \n    /* Modifiers */\n    \n    modifier onlyAuthCaller(){\n        lastAccess = msg.sender;\n        require(authorizedCaller[msg.sender] == 1);\n        _;\n    }\n    \n    /* User Related */\n    struct Person {\n        string name;\n        string contactNo;\n        bool isActive;\n    }\n    \n    struct Retailer{\n        string registrationNo;\n        string shopName;\n        string shopAddress;\n    }\n\n    struct ProductInspector{\n        string typeOfProduct;\n        string serviceChecked;\n    }\n    \n    struct Packer{\n        string typeOfProduct;\n        string materialUsed;\n    }\n    \n    struct Deliver{\n        string typeOfProduct;\n        string vehicalUsed;\n    }\n    \n    struct Assembler{\n        string expertiseArea;\n        string experience;\n    }\n\n    mapping(address => Person) userDetails;\n    mapping(address =>  string) userRole;\n    \n    /* Caller Mapping */\n    mapping(address => uint8) authorizedCaller;\n\n    \n    /* authorize caller */\n    function authorizeCaller(address _caller) public onlyOwner returns(bool) {\n        authorizedCaller[_caller] = 1;\n        emit AuthorizedCaller(_caller);\n        return true;\n    }\n    \n    // /* deauthorize caller */\n    function deAuthorizeCaller(address _caller) public onlyOwner returns(bool) {\n        authorizedCaller[_caller] = 0;\n        emit DeAuthorizedCaller(_caller);\n        return true;\n    }\n    \n    /*User Roles\n        \n    */\n    \n    /* Process Related */\n\n    mapping (address => ProductInspector) batchProductInspector;\n    mapping (address => Assembler) batchAssembler;\n    mapping (address => Packer) batchPacker;\n    mapping (address => Deliver) batchDeliver;\n    mapping (address => Retailer) batchRetailer;\n    mapping (address =>  string) nextAction;\n    \n    /*Initialize struct pointer*/\n    Person userDetail;\n    ProductInspector productInspectorData;\n    Packer packerData;\n    Deliver deliverData;\n    Assembler assemblerData;\n    Retailer retailerData;\n    \n    \n    \n    /* Get User Role */\n    function getUserRole(address _userAddress) public onlyAuthCaller returns( string memory){\n        return userRole[_userAddress];\n    }\n    \n    /* Get Next Action  */    \n    function getNextAction(address _batchNo) public onlyAuthCaller returns( string memory){\n        return nextAction[_batchNo];\n    }\n        \n    /*set user details*/\n    function setUser(address _userAddress,\n                      string memory _name, \n                      string memory _contactNo, \n                      string memory _role, \n                     bool _isActive) public onlyAuthCaller returns(bool){\n        \n        /*store data into struct*/\n        userDetail.name = _name;\n        userDetail.contactNo = _contactNo;\n        userDetail.isActive = _isActive;\n        \n        /*store data into mapping*/\n        userDetails[_userAddress] = userDetail;\n        userRole[_userAddress] = _role;\n        \n        return true;\n    }  \n    \n    /*get user details*/\n    function getUser(address _userAddress) public onlyAuthCaller returns( string memory name, \n                                                                     string memory contactNo, \n                                                                     string memory role,\n                                                                    bool isActive\n                                                                ){\n\n        /*Getting value from struct*/\n        Person memory tmpData = userDetails[_userAddress];\n        \n        return (tmpData.name, tmpData.contactNo, userRole[_userAddress], tmpData.isActive);\n    }\n    \n     /*set Retailer data*/\n    function setRetailerData(address batchNo,\n                              string memory _registrationNo, string memory _shopName ,string memory _shopAddress) public onlyAuthCaller returns(bool){\n        \n         \n        retailerData.registrationNo = _registrationNo;\n        retailerData.shopName = _shopName;\n        retailerData.shopAddress = _shopAddress;\n        batchRetailer[batchNo] =  retailerData;\n        \n        nextAction[batchNo] = 'ASSEMBLER'; \n        \n        return true;\n    }\n    \n     /*get Retailer data*/\n    function getRetailerData( address batchNo) public onlyAuthCaller returns(string memory registrationNo ,\n                                                                     string memory shopName, string memory shopAddress){\n\n        Retailer memory tmpData = batchRetailer[batchNo];\n        return (tmpData.registrationNo,\n                tmpData.shopName,\n                tmpData.shopAddress);\n    }\n    \n     /*set Assembeler data*/\n    function setAssemblerData(address batchNo,\n                              string memory _expertiseArea, string memory _experience) public onlyAuthCaller returns(bool){\n        \n        assemblerData.expertiseArea = _expertiseArea;\n        assemblerData.experience = _experience;\n        \n        batchAssembler[batchNo] = assemblerData;\n        \n        nextAction[batchNo] = 'INSPECTION'; \n        \n        return true;\n    }\n    \n    /*get Assembeler data*/\n    function getAssemblerData(address batchNo) public onlyAuthCaller returns(string memory expertiseArea,\n                                                                            string memory experience){\n        \n        Assembler memory tmpData = batchAssembler[batchNo];\n    \n        return (tmpData.expertiseArea,tmpData.experience);\n        \n    }\n\n    /*set product Inspector data*/\n    function setProductInspectorData(address batchNo,\n                                     string memory _typeOfProduct,\n                                     string memory _serviceChecked) public onlyAuthCaller returns(bool){\n        productInspectorData.typeOfProduct = _typeOfProduct;\n        productInspectorData.serviceChecked = _serviceChecked;\n        \n        batchProductInspector[batchNo] = productInspectorData;\n        \n        nextAction[batchNo] = 'PACKAGING'; \n        \n        return true;\n    }\n    \n    \n    /*get product Inspector data*/\n    function getProductInspectorData(address batchNo) public onlyAuthCaller returns ( string memory typeOfProduct, string memory serviceChecked){\n        \n        ProductInspector memory tmpData = batchProductInspector[batchNo];\n        return (tmpData.typeOfProduct, tmpData.serviceChecked);\n    }\n    \n\n    /*set product packer data*/\n    function setPackerData(address batchNo,\n                               string memory _typeOfProduct,\n                               string memory _materialUsed) public onlyAuthCaller returns(bool){\n        packerData.typeOfProduct = _typeOfProduct;\n        packerData.materialUsed = _materialUsed;\n        \n        batchPacker[batchNo] = packerData;\n        \n        nextAction[batchNo] = 'DELIVERY'; \n        \n        return true;\n    }\n    \n    /*get product packer data*/\n    function getPackerData(address batchNo) public onlyAuthCaller returns( string memory _typeOfProduct,\n                                                                                            string memory _materialUsed){\n        \n        Packer memory tmpData = batchPacker[batchNo];\n        return (tmpData.typeOfProduct, tmpData.materialUsed);\n    }\n    \n    /*set Deliverer data*/\n    function setDeliverData(address batchNo,\n                               string memory _typeOfProduct,\n                               string memory _vehicalUsed\n                               ) public onlyAuthCaller returns(bool){\n        \n        deliverData.typeOfProduct = _typeOfProduct;\n        deliverData.vehicalUsed = _vehicalUsed;\n        batchDeliver[batchNo] = deliverData;\n        \n        nextAction[batchNo] = 'PERSON'; \n        \n        return true;\n    }\n    \n    /*get Deliverer data*/\n    function getDeliverData(address batchNo) public onlyAuthCaller returns(string memory _typeOfProduct,\n                               string memory _vehicalUsed){\n        \n        Deliver memory tmpData = batchDeliver[batchNo];\n\n        return (tmpData.typeOfProduct, \n                tmpData.vehicalUsed);\n        \n    }\n  }\n",
  "sourcePath": "C:\\Users\\soura\\OneDrive\\Desktop\\Task\\Project\\contracts\\SupplyChainStorage.sol",
  "compiler": {
    "name": "solc",
    "version": "0.8.0+commit.c7dfd78e.Emscripten.clang"
  },
  "schemaVersion": "3.4.1",
  "updatedAt": "2021-11-21T15:01:59.187Z",
  "devdoc": {
    "kind": "dev",
    "methods": {
      "renounceOwnership()": {
        "details": "Allows the current owner to relinquish control of the contract."
      },
      "transferOwnership(address)": {
        "details": "Allows the current owner to transfer control of the contract to a newOwner.",
        "params": {
          "newOwner": "The address to transfer ownership to."
        }
      }
    },
    "version": 1
  },
  "userdoc": {
    "kind": "user",
    "methods": {},
    "version": 1
  }
}