{
  "contractName": "SupplyChainUser",
  "abi": [
    {
      "inputs": [
        {
          "internalType": "address",
          "name": "_supplyChainAddress",
          "type": "address"
        }
      ],
      "stateMutability": "nonpayable",
      "type": "constructor"
    },
    {
      "anonymous": false,
      "inputs": [
        {
          "indexed": true,
          "internalType": "address",
          "name": "oldOwner",
          "type": "address"
        }
      ],
      "name": "OwnershipRenounced",
      "type": "event"
    },
    {
      "anonymous": false,
      "inputs": [
        {
          "indexed": true,
          "internalType": "address",
          "name": "oldOwner",
          "type": "address"
        },
        {
          "indexed": true,
          "internalType": "address",
          "name": "newOwner",
          "type": "address"
        }
      ],
      "name": "OwnershipTransferred",
      "type": "event"
    },
    {
      "anonymous": false,
      "inputs": [
        {
          "indexed": true,
          "internalType": "address",
          "name": "user",
          "type": "address"
        },
        {
          "indexed": false,
          "internalType": "string",
          "name": "role",
          "type": "string"
        }
      ],
      "name": "UserRoleUpdate",
      "type": "event"
    },
    {
      "anonymous": false,
      "inputs": [
        {
          "indexed": true,
          "internalType": "address",
          "name": "user",
          "type": "address"
        },
        {
          "indexed": false,
          "internalType": "string",
          "name": "name",
          "type": "string"
        },
        {
          "indexed": false,
          "internalType": "string",
          "name": "contactNo",
          "type": "string"
        },
        {
          "indexed": false,
          "internalType": "string",
          "name": "role",
          "type": "string"
        },
        {
          "indexed": false,
          "internalType": "bool",
          "name": "isActive",
          "type": "bool"
        }
      ],
      "name": "UserUpdate",
      "type": "event"
    },
    {
      "inputs": [],
      "name": "owner",
      "outputs": [
        {
          "internalType": "address",
          "name": "",
          "type": "address"
        }
      ],
      "stateMutability": "view",
      "type": "function"
    },
    {
      "inputs": [],
      "name": "renounceOwnership",
      "outputs": [],
      "stateMutability": "nonpayable",
      "type": "function"
    },
    {
      "inputs": [
        {
          "internalType": "address",
          "name": "newOwner",
          "type": "address"
        }
      ],
      "name": "transferOwnership",
      "outputs": [],
      "stateMutability": "nonpayable",
      "type": "function"
    },
    {
      "inputs": [
        {
          "internalType": "string",
          "name": "_name",
          "type": "string"
        },
        {
          "internalType": "string",
          "name": "_contactNo",
          "type": "string"
        },
        {
          "internalType": "string",
          "name": "_role",
          "type": "string"
        },
        {
          "internalType": "bool",
          "name": "_isActive",
          "type": "bool"
        }
      ],
      "name": "updateUser",
      "outputs": [
        {
          "internalType": "bool",
          "name": "",
          "type": "bool"
        }
      ],
      "stateMutability": "nonpayable",
      "type": "function"
    },
    {
      "inputs": [
        {
          "internalType": "address",
          "name": "_userAddress",
          "type": "address"
        },
        {
          "internalType": "string",
          "name": "_name",
          "type": "string"
        },
        {
          "internalType": "string",
          "name": "_contactNo",
          "type": "string"
        },
        {
          "internalType": "string",
          "name": "_role",
          "type": "string"
        },
        {
          "internalType": "bool",
          "name": "_isActive",
          "type": "bool"
        }
      ],
      "name": "updateUserForAdmin",
      "outputs": [
        {
          "internalType": "bool",
          "name": "",
          "type": "bool"
        }
      ],
      "stateMutability": "nonpayable",
      "type": "function"
    },
    {
      "inputs": [
        {
          "internalType": "address",
          "name": "_userAddress",
          "type": "address"
        }
      ],
      "name": "getUser",
      "outputs": [
        {
          "internalType": "string",
          "name": "name",
          "type": "string"
        },
        {
          "internalType": "string",
          "name": "contactNo",
          "type": "string"
        },
        {
          "internalType": "string",
          "name": "role",
          "type": "string"
        },
        {
          "internalType": "bool",
          "name": "isActive",
          "type": "bool"
        }
      ],
      "stateMutability": "nonpayable",
      "type": "function"
    }
  ],
  "bytecode": "0x608060405234801561001057600080fd5b5060405161102e38038061102e833981810160405281019061003291906100ce565b336000806101000a81548173ffffffffffffffffffffffffffffffffffffffff021916908373ffffffffffffffffffffffffffffffffffffffff16021790555080600160006101000a81548173ffffffffffffffffffffffffffffffffffffffff021916908373ffffffffffffffffffffffffffffffffffffffff16021790555050610140565b6000815190506100c881610129565b92915050565b6000602082840312156100e057600080fd5b60006100ee848285016100b9565b91505092915050565b600061010282610109565b9050919050565b600073ffffffffffffffffffffffffffffffffffffffff82169050919050565b610132816100f7565b811461013d57600080fd5b50565b610edf8061014f6000396000f3fe608060405234801561001057600080fd5b50600436106100625760003560e01c80634133f911146100675780634516d51e146100975780636f77926b146100c7578063715018a6146100fa5780638da5cb5b14610104578063f2fde38b14610122575b600080fd5b610081600480360381019061007c919061098f565b61013e565b60405161008e9190610ca7565b60405180910390f35b6100b160048036038101906100ac9190610a77565b61033b565b6040516100be9190610ca7565b60405180910390f35b6100e160048036038101906100dc9190610966565b6104dd565b6040516100f19493929190610ce4565b60405180910390f35b6101026105e6565b005b61010c6106e4565b6040516101199190610c24565b60405180910390f35b61013c60048036038101906101379190610966565b610708565b005b60008060009054906101000a900473ffffffffffffffffffffffffffffffffffffffff1673ffffffffffffffffffffffffffffffffffffffff163373ffffffffffffffffffffffffffffffffffffffff161461019957600080fd5b600073ffffffffffffffffffffffffffffffffffffffff168673ffffffffffffffffffffffffffffffffffffffff1614156101d357600080fd5b6000600160009054906101000a900473ffffffffffffffffffffffffffffffffffffffff1673ffffffffffffffffffffffffffffffffffffffff16631f10a01088888888886040518663ffffffff1660e01b8152600401610238959493929190610c3f565b602060405180830381600087803b15801561025257600080fd5b505af1158015610266573d6000803e3d6000fd5b505050506040513d601f19601f8201168201806040525081019061028a9190610a4e565b90508673ffffffffffffffffffffffffffffffffffffffff167f4190f2c62c8794b65d58c651087f5d40a3993f92491edde1514b2988f5c3dccd878787876040516102d89493929190610ce4565b60405180910390a28673ffffffffffffffffffffffffffffffffffffffff167f3b419384c2ac88d62e2daac72f8c6e6398c474d91c63e814a307e3641762c8de856040516103269190610cc2565b60405180910390a28091505095945050505050565b60008073ffffffffffffffffffffffffffffffffffffffff163373ffffffffffffffffffffffffffffffffffffffff16141561037657600080fd5b6000600160009054906101000a900473ffffffffffffffffffffffffffffffffffffffff1673ffffffffffffffffffffffffffffffffffffffff16631f10a01033888888886040518663ffffffff1660e01b81526004016103db959493929190610c3f565b602060405180830381600087803b1580156103f557600080fd5b505af1158015610409573d6000803e3d6000fd5b505050506040513d601f19601f8201168201806040525081019061042d9190610a4e565b90503373ffffffffffffffffffffffffffffffffffffffff167f4190f2c62c8794b65d58c651087f5d40a3993f92491edde1514b2988f5c3dccd8787878760405161047b9493929190610ce4565b60405180910390a23373ffffffffffffffffffffffffffffffffffffffff167f3b419384c2ac88d62e2daac72f8c6e6398c474d91c63e814a307e3641762c8de856040516104c99190610cc2565b60405180910390a280915050949350505050565b606080606060008073ffffffffffffffffffffffffffffffffffffffff168573ffffffffffffffffffffffffffffffffffffffff16141561051d57600080fd5b600160009054906101000a900473ffffffffffffffffffffffffffffffffffffffff1673ffffffffffffffffffffffffffffffffffffffff16636f77926b866040518263ffffffff1660e01b81526004016105789190610c24565b600060405180830381600087803b15801561059257600080fd5b505af11580156105a6573d6000803e3d6000fd5b505050506040513d6000823e3d601f19601f820116820180604052508101906105cf9190610b22565b809450819550829650839750505050509193509193565b60008054906101000a900473ffffffffffffffffffffffffffffffffffffffff1673ffffffffffffffffffffffffffffffffffffffff163373ffffffffffffffffffffffffffffffffffffffff161461063e57600080fd5b60008054906101000a900473ffffffffffffffffffffffffffffffffffffffff1673ffffffffffffffffffffffffffffffffffffffff167ff8df31144d9c2f0f6b59d69b8b98abd5459d07f2742c4df920b25aae33c6482060405160405180910390a260008060006101000a81548173ffffffffffffffffffffffffffffffffffffffff021916908373ffffffffffffffffffffffffffffffffffffffff160217905550565b60008054906101000a900473ffffffffffffffffffffffffffffffffffffffff1681565b60008054906101000a900473ffffffffffffffffffffffffffffffffffffffff1673ffffffffffffffffffffffffffffffffffffffff163373ffffffffffffffffffffffffffffffffffffffff161461076057600080fd5b600073ffffffffffffffffffffffffffffffffffffffff168173ffffffffffffffffffffffffffffffffffffffff16141561079a57600080fd5b8073ffffffffffffffffffffffffffffffffffffffff1660008054906101000a900473ffffffffffffffffffffffffffffffffffffffff1673ffffffffffffffffffffffffffffffffffffffff167f8be0079c531659141344cd1fd0a4f28419497f9722a3daafe3b4186f6b6457e060405160405180910390a3806000806101000a81548173ffffffffffffffffffffffffffffffffffffffff021916908373ffffffffffffffffffffffffffffffffffffffff16021790555050565b600061086a61086584610d6f565b610d3e565b90508281526020810184848401111561088257600080fd5b61088d848285610df9565b509392505050565b60006108a86108a384610d6f565b610d3e565b9050828152602081018484840111156108c057600080fd5b6108cb848285610e08565b509392505050565b6000813590506108e281610e7b565b92915050565b6000813590506108f781610e92565b92915050565b60008151905061090c81610e92565b92915050565b600082601f83011261092357600080fd5b8135610933848260208601610857565b91505092915050565b600082601f83011261094d57600080fd5b815161095d848260208601610895565b91505092915050565b60006020828403121561097857600080fd5b6000610986848285016108d3565b91505092915050565b600080600080600060a086880312156109a757600080fd5b60006109b5888289016108d3565b955050602086013567ffffffffffffffff8111156109d257600080fd5b6109de88828901610912565b945050604086013567ffffffffffffffff8111156109fb57600080fd5b610a0788828901610912565b935050606086013567ffffffffffffffff811115610a2457600080fd5b610a3088828901610912565b9250506080610a41888289016108e8565b9150509295509295909350565b600060208284031215610a6057600080fd5b6000610a6e848285016108fd565b91505092915050565b60008060008060808587031215610a8d57600080fd5b600085013567ffffffffffffffff811115610aa757600080fd5b610ab387828801610912565b945050602085013567ffffffffffffffff811115610ad057600080fd5b610adc87828801610912565b935050604085013567ffffffffffffffff811115610af957600080fd5b610b0587828801610912565b9250506060610b16878288016108e8565b91505092959194509250565b60008060008060808587031215610b3857600080fd5b600085015167ffffffffffffffff811115610b5257600080fd5b610b5e8782880161093c565b945050602085015167ffffffffffffffff811115610b7b57600080fd5b610b878782880161093c565b935050604085015167ffffffffffffffff811115610ba457600080fd5b610bb08782880161093c565b9250506060610bc1878288016108fd565b91505092959194509250565b610bd681610dbb565b82525050565b610be581610dcd565b82525050565b6000610bf682610d9f565b610c008185610daa565b9350610c10818560208601610e08565b610c1981610e6a565b840191505092915050565b6000602082019050610c396000830184610bcd565b92915050565b600060a082019050610c546000830188610bcd565b8181036020830152610c668187610beb565b90508181036040830152610c7a8186610beb565b90508181036060830152610c8e8185610beb565b9050610c9d6080830184610bdc565b9695505050505050565b6000602082019050610cbc6000830184610bdc565b92915050565b60006020820190508181036000830152610cdc8184610beb565b905092915050565b60006080820190508181036000830152610cfe8187610beb565b90508181036020830152610d128186610beb565b90508181036040830152610d268185610beb565b9050610d356060830184610bdc565b95945050505050565b6000604051905081810181811067ffffffffffffffff82111715610d6557610d64610e3b565b5b8060405250919050565b600067ffffffffffffffff821115610d8a57610d89610e3b565b5b601f19601f8301169050602081019050919050565b600081519050919050565b600082825260208201905092915050565b6000610dc682610dd9565b9050919050565b60008115159050919050565b600073ffffffffffffffffffffffffffffffffffffffff82169050919050565b82818337600083830152505050565b60005b83811015610e26578082015181840152602081019050610e0b565b83811115610e35576000848401525b50505050565b7f4e487b7100000000000000000000000000000000000000000000000000000000600052604160045260246000fd5b6000601f19601f8301169050919050565b610e8481610dbb565b8114610e8f57600080fd5b50565b610e9b81610dcd565b8114610ea657600080fd5b5056fea26469706673582212200667669f072c9ae085f6c59a978fb060a45f47942a095e9b9901d0487b9ed30e64736f6c63430008000033",
  "immutableReferences": {},
  "source": "// SPDX-License-Identifier: MIT\npragma solidity ^0.8.0;\nimport \"./SupplyChainStorage.sol\";\nimport \"./Ownable.sol\";\n\ncontract SupplyChainUser is Ownable\n{\n     /*Events*/ \n    event UserUpdate(address indexed user, string name, string contactNo, string role, bool isActive);\n    event UserRoleUpdate(address indexed user, string role); \n    \n     /* Storage Variables */    \n    SupplyChainStorage supplyChainStorage;\n    \n    constructor(address _supplyChainAddress) {\n        supplyChainStorage = SupplyChainStorage(_supplyChainAddress);\n    }\n    \n    \n     /* Create/Update User */\n\n    function updateUser(string memory _name, string memory _contactNo, string memory _role, bool _isActive) public returns(bool)\n    {\n        require(msg.sender != address(0));\n        \n        /* Call Storage Contract */\n        bool status = supplyChainStorage.setUser(msg.sender, _name, _contactNo, _role, _isActive);\n        \n         /*call event*/\n        emit UserUpdate(msg.sender,_name,_contactNo,_role,_isActive);\n        emit UserRoleUpdate(msg.sender,_role);\n        \n        return status;\n    }\n    \n    /* Create/Update User For Admin  */\n    function updateUserForAdmin(address _userAddress, string memory _name, string memory _contactNo, string memory _role, bool _isActive) public onlyOwner returns(bool)\n    {\n        require(_userAddress != address(0));\n        \n        /* Call Storage Contract */\n        bool status = supplyChainStorage.setUser(_userAddress, _name, _contactNo, _role, _isActive);\n        \n         /*call event*/\n        emit UserUpdate(_userAddress,_name,_contactNo,_role,_isActive);\n        emit UserRoleUpdate(_userAddress,_role);\n        \n        return status;\n    }\n    \n    /* get User */\n    function getUser(address _userAddress) public returns(string memory name, string memory contactNo, string memory role, bool isActive){\n        require(_userAddress != address(0));\n        \n        /*Getting value from struct*/\n       (name, contactNo, role, isActive) = supplyChainStorage.getUser(_userAddress);\n       \n       return (name, contactNo, role, isActive);\n    }\n}\n",
  "sourcePath": "C:/Users/soura/OneDrive/Desktop/Task/Project/contracts/SupplyChainUser.sol",
  "compiler": {
    "name": "solc",
    "version": "0.8.0+commit.c7dfd78e.Emscripten.clang"
  },
  "schemaVersion": "3.4.1",
  "updatedAt": "2021-11-21T15:01:59.199Z",
  "devdoc": {
    "kind": "dev",
    "methods": {
      "renounceOwnership()": {
        "details": "Allows the current owner to relinquish control of the contract."
      },
      "transferOwnership(address)": {
        "details": "Allows the current owner to transfer control of the contract to a newOwner.",
        "params": {
          "newOwner": "The address to transfer ownership to."
        }
      }
    },
    "version": 1
  },
  "userdoc": {
    "kind": "user",
    "methods": {},
    "version": 1
  }
}