{
  "contractName": "SupplyChainUser",
  "abi": [
    {
      "inputs": [
        {
          "internalType": "address",
          "name": "_supplyChainAddress",
          "type": "address"
        }
      ],
      "stateMutability": "nonpayable",
      "type": "constructor"
    },
    {
      "anonymous": false,
      "inputs": [
        {
          "indexed": true,
          "internalType": "address",
          "name": "oldOwner",
          "type": "address"
        }
      ],
      "name": "OwnershipRenounced",
      "type": "event"
    },
    {
      "anonymous": false,
      "inputs": [
        {
          "indexed": true,
          "internalType": "address",
          "name": "oldOwner",
          "type": "address"
        },
        {
          "indexed": true,
          "internalType": "address",
          "name": "newOwner",
          "type": "address"
        }
      ],
      "name": "OwnershipTransferred",
      "type": "event"
    },
    {
      "anonymous": false,
      "inputs": [
        {
          "indexed": true,
          "internalType": "address",
          "name": "user",
          "type": "address"
        },
        {
          "indexed": false,
          "internalType": "string",
          "name": "role",
          "type": "string"
        }
      ],
      "name": "UserRoleUpdate",
      "type": "event"
    },
    {
      "anonymous": false,
      "inputs": [
        {
          "indexed": true,
          "internalType": "address",
          "name": "user",
          "type": "address"
        },
        {
          "indexed": false,
          "internalType": "string",
          "name": "name",
          "type": "string"
        },
        {
          "indexed": false,
          "internalType": "string",
          "name": "contactNo",
          "type": "string"
        },
        {
          "indexed": false,
          "internalType": "string",
          "name": "role",
          "type": "string"
        },
        {
          "indexed": false,
          "internalType": "bool",
          "name": "isActive",
          "type": "bool"
        }
      ],
      "name": "UserUpdate",
      "type": "event"
    },
    {
      "inputs": [],
      "name": "owner",
      "outputs": [
        {
          "internalType": "address",
          "name": "",
          "type": "address"
        }
      ],
      "stateMutability": "view",
      "type": "function"
    },
    {
      "inputs": [],
      "name": "renounceOwnership",
      "outputs": [],
      "stateMutability": "nonpayable",
      "type": "function"
    },
    {
      "inputs": [],
      "name": "supplyChainStorage",
      "outputs": [
        {
          "internalType": "contract SupplyChainStorage",
          "name": "",
          "type": "address"
        }
      ],
      "stateMutability": "view",
      "type": "function"
    },
    {
      "inputs": [
        {
          "internalType": "address",
          "name": "newOwner",
          "type": "address"
        }
      ],
      "name": "transferOwnership",
      "outputs": [],
      "stateMutability": "nonpayable",
      "type": "function"
    },
    {
      "inputs": [
        {
          "internalType": "string",
          "name": "_name",
          "type": "string"
        },
        {
          "internalType": "string",
          "name": "_contactNo",
          "type": "string"
        },
        {
          "internalType": "string",
          "name": "_role",
          "type": "string"
        },
        {
          "internalType": "bool",
          "name": "_isActive",
          "type": "bool"
        }
      ],
      "name": "updateUser",
      "outputs": [
        {
          "internalType": "bool",
          "name": "",
          "type": "bool"
        }
      ],
      "stateMutability": "nonpayable",
      "type": "function"
    },
    {
      "inputs": [
        {
          "internalType": "address",
          "name": "_userAddress",
          "type": "address"
        },
        {
          "internalType": "string",
          "name": "_name",
          "type": "string"
        },
        {
          "internalType": "string",
          "name": "_contactNo",
          "type": "string"
        },
        {
          "internalType": "string",
          "name": "_role",
          "type": "string"
        },
        {
          "internalType": "bool",
          "name": "_isActive",
          "type": "bool"
        }
      ],
      "name": "updateUserForAdmin",
      "outputs": [
        {
          "internalType": "bool",
          "name": "",
          "type": "bool"
        }
      ],
      "stateMutability": "nonpayable",
      "type": "function"
    },
    {
      "inputs": [
        {
          "internalType": "address",
          "name": "_userAddress",
          "type": "address"
        }
      ],
      "name": "getUser",
      "outputs": [
        {
          "internalType": "string",
          "name": "name",
          "type": "string"
        },
        {
          "internalType": "string",
          "name": "contactNo",
          "type": "string"
        },
        {
          "internalType": "string",
          "name": "role",
          "type": "string"
        },
        {
          "internalType": "bool",
          "name": "isActive",
          "type": "bool"
        }
      ],
      "stateMutability": "nonpayable",
      "type": "function"
    }
  ],
  "bytecode": "0x608060405234801561001057600080fd5b506040516110db3803806110db833981810160405281019061003291906100ce565b336000806101000a81548173ffffffffffffffffffffffffffffffffffffffff021916908373ffffffffffffffffffffffffffffffffffffffff16021790555080600160006101000a81548173ffffffffffffffffffffffffffffffffffffffff021916908373ffffffffffffffffffffffffffffffffffffffff16021790555050610140565b6000815190506100c881610129565b92915050565b6000602082840312156100e057600080fd5b60006100ee848285016100b9565b91505092915050565b600061010282610109565b9050919050565b600073ffffffffffffffffffffffffffffffffffffffff82169050919050565b610132816100f7565b811461013d57600080fd5b50565b610f8c8061014f6000396000f3fe608060405234801561001057600080fd5b506004361061007d5760003560e01c80636f77926b1161005b5780636f77926b14610100578063715018a6146101335780638da5cb5b1461013d578063f2fde38b1461015b5761007d565b80634133f91114610082578063447bc492146100b25780634516d51e146100d0575b600080fd5b61009c600480360381019061009791906109ee565b610177565b6040516100a99190610d15565b60405180910390f35b6100ba610374565b6040516100c79190610d30565b60405180910390f35b6100ea60048036038101906100e59190610ad6565b61039a565b6040516100f79190610d15565b60405180910390f35b61011a600480360381019061011591906109c5565b61053c565b60405161012a9493929190610d6d565b60405180910390f35b61013b610645565b005b610145610743565b6040516101529190610c92565b60405180910390f35b610175600480360381019061017091906109c5565b610767565b005b60008060009054906101000a900473ffffffffffffffffffffffffffffffffffffffff1673ffffffffffffffffffffffffffffffffffffffff163373ffffffffffffffffffffffffffffffffffffffff16146101d257600080fd5b600073ffffffffffffffffffffffffffffffffffffffff168673ffffffffffffffffffffffffffffffffffffffff16141561020c57600080fd5b6000600160009054906101000a900473ffffffffffffffffffffffffffffffffffffffff1673ffffffffffffffffffffffffffffffffffffffff16631f10a01088888888886040518663ffffffff1660e01b8152600401610271959493929190610cad565b602060405180830381600087803b15801561028b57600080fd5b505af115801561029f573d6000803e3d6000fd5b505050506040513d601f19601f820116820180604052508101906102c39190610aad565b90508673ffffffffffffffffffffffffffffffffffffffff167f4190f2c62c8794b65d58c651087f5d40a3993f92491edde1514b2988f5c3dccd878787876040516103119493929190610d6d565b60405180910390a28673ffffffffffffffffffffffffffffffffffffffff167f3b419384c2ac88d62e2daac72f8c6e6398c474d91c63e814a307e3641762c8de8560405161035f9190610d4b565b60405180910390a28091505095945050505050565b600160009054906101000a900473ffffffffffffffffffffffffffffffffffffffff1681565b60008073ffffffffffffffffffffffffffffffffffffffff163373ffffffffffffffffffffffffffffffffffffffff1614156103d557600080fd5b6000600160009054906101000a900473ffffffffffffffffffffffffffffffffffffffff1673ffffffffffffffffffffffffffffffffffffffff16631f10a01033888888886040518663ffffffff1660e01b815260040161043a959493929190610cad565b602060405180830381600087803b15801561045457600080fd5b505af1158015610468573d6000803e3d6000fd5b505050506040513d601f19601f8201168201806040525081019061048c9190610aad565b90503373ffffffffffffffffffffffffffffffffffffffff167f4190f2c62c8794b65d58c651087f5d40a3993f92491edde1514b2988f5c3dccd878787876040516104da9493929190610d6d565b60405180910390a23373ffffffffffffffffffffffffffffffffffffffff167f3b419384c2ac88d62e2daac72f8c6e6398c474d91c63e814a307e3641762c8de856040516105289190610d4b565b60405180910390a280915050949350505050565b606080606060008073ffffffffffffffffffffffffffffffffffffffff168573ffffffffffffffffffffffffffffffffffffffff16141561057c57600080fd5b600160009054906101000a900473ffffffffffffffffffffffffffffffffffffffff1673ffffffffffffffffffffffffffffffffffffffff16636f77926b866040518263ffffffff1660e01b81526004016105d79190610c92565b600060405180830381600087803b1580156105f157600080fd5b505af1158015610605573d6000803e3d6000fd5b505050506040513d6000823e3d601f19601f8201168201806040525081019061062e9190610b81565b809450819550829650839750505050509193509193565b60008054906101000a900473ffffffffffffffffffffffffffffffffffffffff1673ffffffffffffffffffffffffffffffffffffffff163373ffffffffffffffffffffffffffffffffffffffff161461069d57600080fd5b60008054906101000a900473ffffffffffffffffffffffffffffffffffffffff1673ffffffffffffffffffffffffffffffffffffffff167ff8df31144d9c2f0f6b59d69b8b98abd5459d07f2742c4df920b25aae33c6482060405160405180910390a260008060006101000a81548173ffffffffffffffffffffffffffffffffffffffff021916908373ffffffffffffffffffffffffffffffffffffffff160217905550565b60008054906101000a900473ffffffffffffffffffffffffffffffffffffffff1681565b60008054906101000a900473ffffffffffffffffffffffffffffffffffffffff1673ffffffffffffffffffffffffffffffffffffffff163373ffffffffffffffffffffffffffffffffffffffff16146107bf57600080fd5b600073ffffffffffffffffffffffffffffffffffffffff168173ffffffffffffffffffffffffffffffffffffffff1614156107f957600080fd5b8073ffffffffffffffffffffffffffffffffffffffff1660008054906101000a900473ffffffffffffffffffffffffffffffffffffffff1673ffffffffffffffffffffffffffffffffffffffff167f8be0079c531659141344cd1fd0a4f28419497f9722a3daafe3b4186f6b6457e060405160405180910390a3806000806101000a81548173ffffffffffffffffffffffffffffffffffffffff021916908373ffffffffffffffffffffffffffffffffffffffff16021790555050565b60006108c96108c484610df8565b610dc7565b9050828152602081018484840111156108e157600080fd5b6108ec848285610ea6565b509392505050565b600061090761090284610df8565b610dc7565b90508281526020810184848401111561091f57600080fd5b61092a848285610eb5565b509392505050565b60008135905061094181610f28565b92915050565b60008135905061095681610f3f565b92915050565b60008151905061096b81610f3f565b92915050565b600082601f83011261098257600080fd5b81356109928482602086016108b6565b91505092915050565b600082601f8301126109ac57600080fd5b81516109bc8482602086016108f4565b91505092915050565b6000602082840312156109d757600080fd5b60006109e584828501610932565b91505092915050565b600080600080600060a08688031215610a0657600080fd5b6000610a1488828901610932565b955050602086013567ffffffffffffffff811115610a3157600080fd5b610a3d88828901610971565b945050604086013567ffffffffffffffff811115610a5a57600080fd5b610a6688828901610971565b935050606086013567ffffffffffffffff811115610a8357600080fd5b610a8f88828901610971565b9250506080610aa088828901610947565b9150509295509295909350565b600060208284031215610abf57600080fd5b6000610acd8482850161095c565b91505092915050565b60008060008060808587031215610aec57600080fd5b600085013567ffffffffffffffff811115610b0657600080fd5b610b1287828801610971565b945050602085013567ffffffffffffffff811115610b2f57600080fd5b610b3b87828801610971565b935050604085013567ffffffffffffffff811115610b5857600080fd5b610b6487828801610971565b9250506060610b7587828801610947565b91505092959194509250565b60008060008060808587031215610b9757600080fd5b600085015167ffffffffffffffff811115610bb157600080fd5b610bbd8782880161099b565b945050602085015167ffffffffffffffff811115610bda57600080fd5b610be68782880161099b565b935050604085015167ffffffffffffffff811115610c0357600080fd5b610c0f8782880161099b565b9250506060610c208782880161095c565b91505092959194509250565b610c3581610e44565b82525050565b610c4481610e56565b82525050565b610c5381610e82565b82525050565b6000610c6482610e28565b610c6e8185610e33565b9350610c7e818560208601610eb5565b610c8781610f17565b840191505092915050565b6000602082019050610ca76000830184610c2c565b92915050565b600060a082019050610cc26000830188610c2c565b8181036020830152610cd48187610c59565b90508181036040830152610ce88186610c59565b90508181036060830152610cfc8185610c59565b9050610d0b6080830184610c3b565b9695505050505050565b6000602082019050610d2a6000830184610c3b565b92915050565b6000602082019050610d456000830184610c4a565b92915050565b60006020820190508181036000830152610d658184610c59565b905092915050565b60006080820190508181036000830152610d878187610c59565b90508181036020830152610d9b8186610c59565b90508181036040830152610daf8185610c59565b9050610dbe6060830184610c3b565b95945050505050565b6000604051905081810181811067ffffffffffffffff82111715610dee57610ded610ee8565b5b8060405250919050565b600067ffffffffffffffff821115610e1357610e12610ee8565b5b601f19601f8301169050602081019050919050565b600081519050919050565b600082825260208201905092915050565b6000610e4f82610e62565b9050919050565b60008115159050919050565b600073ffffffffffffffffffffffffffffffffffffffff82169050919050565b6000610e8d82610e94565b9050919050565b6000610e9f82610e62565b9050919050565b82818337600083830152505050565b60005b83811015610ed3578082015181840152602081019050610eb8565b83811115610ee2576000848401525b50505050565b7f4e487b7100000000000000000000000000000000000000000000000000000000600052604160045260246000fd5b6000601f19601f8301169050919050565b610f3181610e44565b8114610f3c57600080fd5b50565b610f4881610e56565b8114610f5357600080fd5b5056fea2646970667358221220d2d4b1d650deba92c50c5ff9b2ca5f9d07f5e7803c1a4005e8983979eb532fe864736f6c63430008000033",
  "immutableReferences": {},
  "source": "// SPDX-License-Identifier: MIT\r\npragma solidity ^0.8.0;\r\nimport \"./SupplyChainStorage.sol\";\r\nimport \"./Ownable.sol\";\r\n\r\ncontract SupplyChainUser is Ownable\r\n{\r\n     /*Events*/ \r\n    event UserUpdate(address indexed user, string name, string contactNo, string role, bool isActive);\r\n    event UserRoleUpdate(address indexed user, string role); \r\n    \r\n     /* Storage Variables */    \r\n    SupplyChainStorage public supplyChainStorage;\r\n    \r\n    constructor(address _supplyChainAddress) {\r\n        supplyChainStorage = SupplyChainStorage(_supplyChainAddress);\r\n    }\r\n    \r\n    \r\n     /* Create/Update User */\r\n\r\n    function updateUser(string memory _name, string memory _contactNo, string memory _role, bool _isActive) public returns(bool)\r\n    {\r\n        require(msg.sender != address(0));\r\n        \r\n        /* Call Storage Contract */\r\n        bool status = supplyChainStorage.setUser(msg.sender, _name, _contactNo, _role, _isActive);\r\n        \r\n         /*call event*/\r\n        emit UserUpdate(msg.sender,_name,_contactNo,_role,_isActive);\r\n        emit UserRoleUpdate(msg.sender,_role);\r\n        \r\n        return status;\r\n    }\r\n    \r\n    /* Create/Update User For Admin  */\r\n    function updateUserForAdmin(address _userAddress, string memory _name, string memory _contactNo, string memory _role, bool _isActive) public onlyOwner returns(bool)\r\n    {\r\n        require(_userAddress != address(0));\r\n        \r\n        /* Call Storage Contract */\r\n        bool status = supplyChainStorage.setUser(_userAddress, _name, _contactNo, _role, _isActive);\r\n        \r\n         /*call event*/\r\n        emit UserUpdate(_userAddress,_name,_contactNo,_role,_isActive);\r\n        emit UserRoleUpdate(_userAddress,_role);\r\n        \r\n        return status;\r\n    }\r\n    \r\n    /* get User */\r\n    function getUser(address _userAddress) public returns(string memory name, string memory contactNo, string memory role, bool isActive){\r\n        require(_userAddress != address(0));\r\n        \r\n        /*Getting value from struct*/\r\n       (name, contactNo, role, isActive) = supplyChainStorage.getUser(_userAddress);\r\n       \r\n       return (name, contactNo, role, isActive);\r\n    }\r\n}\r\n",
  "sourcePath": "C:/Users/soura/project/IBC_Project/Supply_Chain_Ethereum/Project/contracts/SupplyChainUser.sol",
  "compiler": {
    "name": "solc",
    "version": "0.8.0+commit.c7dfd78e.Emscripten.clang"
  },
  "schemaVersion": "3.4.1",
  "updatedAt": "2021-12-11T09:42:45.784Z",
  "devdoc": {
    "kind": "dev",
    "methods": {
      "renounceOwnership()": {
        "details": "Allows the current owner to relinquish control of the contract."
      },
      "transferOwnership(address)": {
        "details": "Allows the current owner to transfer control of the contract to a newOwner.",
        "params": {
          "newOwner": "The address to transfer ownership to."
        }
      }
    },
    "version": 1
  },
  "userdoc": {
    "kind": "user",
    "methods": {},
    "version": 1
  }
}